:020000040800F2
:1000000070070020D5560008450200084702000886
:100010004B0200084F0200085302000800000000D5
:10002000000000000000000000000000570200086F
:1000300059020008000000005B0200085D02000891
:10004000EF560008EF560008EF560008EF5600087C
:10005000EF560008EF560008EF560008EF5600086C
:10006000EF560008EF560008EF560008EF5600085C
:10007000EF560008EF560008EF560008EF5600084C
:10008000EF560008EF560008EF560008EF5600083C
:10009000EF560008EF560008EF560008EF5600082C
:1000A000EF560008EF560008EF560008EF5600081C
:1000B000EF560008EF560008EF560008EF5600080C
:1000C000EF560008EF560008EF560008EF560008FC
:1000D000EF56000849560008EF560008EF56000892
:1000E000EF560008EF560008EF560008EF560008DC
:1000F000EF560008EF560008EF560008EF560008CC
:10010000EF560008EF560008EF560008EF560008BB
:10011000EF560008EF560008EF560008EF560008AB
:10012000EF560008EF560008EF560008EF5600089B
:1001300000F002F800F03FF80AA090E8000C8244BA
:100140008344AAF10107DA4501D100F034F8AFF297
:10015000090EBAE80F0013F0010F18BFFB1A43F0A5
:1001600001031847D48E0000F48E0000103A24BF1B
:1001700078C878C1FAD8520724BF30C830C144BF0C
:1001800004680C607047000000230024002500264E
:10019000103A28BF78C1FBD8520728BF30C148BFEA
:1001A0000B607047782906F01586002070471FB550
:1001B0001FBD10B510BD06F0C9FE1146FFF7F7FFD1
:1001C00000F008F806F0E7FE03B4FFF7F2FF03BC07
:1001D00005F0E0F908B505F073F94FF4E13005F0EA
:1001E000E7F901F07BF84FF6FF7001F045F805F0F4
:1001F00007F922E005F04FF90746102005233A469B
:1002000000210090084604F0FDFE384607F05AF938
:1002100080460A4907F074F80646094907F09AF93A
:10022000054607F02FF984B21020042322461E2130
:100230000090002004F0E6FE00BFDBE700F07F4501
:100240000000C842704700BFFEE700BFFEE700BFE6
:10025000FEE700BFFEE77047704770477047000039
:100260000CB50020019000906C48006840F480308C
:100270006A49086000BF6948006800F400300090D7
:100280000198401C0190009818B90198B0F5A06F32
:10029000F1D16248006800F4003010B101200090F4
:1002A00001E0002000900098012843D15C480068DC
:1002B00040F010005A4908600846006820F003002A
:1002C00008600846006840F0020008605348406833
:1002D000524948600846406848600846406840F413
:1002E000806048600846406820F47C1048600846FA
:1002F000406840F4E81048600846006840F08070AC
:10030000086000BF4548006800F000700028F9D080
:100310004248406820F00300404948600846406871
:1003200040F00200486000BF3C48406800F00C000C
:100330000828F9D10CBD10B5FFF792FF10BD10B51C
:100340003648006840F001003449086008464068BB
:10035000344908403149486008460068324908403D
:100360002E4908600846006820F48020086008468E
:10037000406820F4FE0048604FF41F008860FFF7DB
:10038000DAFF4FF000602949086010BD10B5002168
:1003900000200022214B5B6803F00C0121B10429ED
:1003A00006D0082928D107E0214B224C236027E002
:1003B0001F4B204C236023E0184B5B6803F4701044
:1003C000164B5B6803F48032022303EB904022B9A2
:1003D000194B4343174C23600DE0104B5B6803F44B
:1003E000003323B1144B4343124C236003E0104B02
:1003F0004343104C236003E00D4B0E4C236000BFC1
:1004000000BF064B5B68C3F303130C4CE15C094B64
:100410001B68CB40074C236010BD00000010024059
:10042000002002400000FFF8FFFFF6FE08ED00E0AC
:1004300000127A000000002000093D0004000020A6
:10044000FE4908807047FD49891C0880704708B53F
:10045000FA48801C00880090BDF8000008BDF74AEB
:100460001080921C1180704710B504462046FFF79B
:10047000E7FF052005F03DF8FFF7E9FF10BDF04864
:100480000089EE4908807047EC49891C0880704754
:1004900030B5014601F01F04C1F34513CA0AE50255
:1004A00005EB43151544A8B230BD00BF011EA0F1F5
:1004B0000102D0B2FAD1704710B503460C46E048AD
:1004C000808849F24131884205D0DD48808845F274
:1004D0001031884214D1DA494889FFF7B1FF181268
:1004E000FFF7B1FFD8B2FFF7AEFFD5498889FFF714
:1004F000A7FF2012FFF7A7FFE0B2FFF7A4FFE0E09D
:10050000CF48808846F6040188421DD1CC488079C6
:10051000012804D1CA480088401EC01A83B2C849C5
:100520004889FFF78DFF1812FFF78DFFD8B2FFF74C
:100530008AFFC3498889FFF783FF2012FFF783FFF3
:10054000E0B2FFF780FFBCE0BD48808841F6631150
:10055000884247D1BA488079A8B9B9480088401E76
:10056000C01A83B2B6494889FFF76AFF0020FFF737
:100570006AFF0020FFF767FF1812FFF764FFD8B289
:10058000FFF761FF16E0AE494889FFF759FF1812DF
:10059000FFF759FFD8B2FFF756FFA9490988491E4E
:1005A000C1F30F20FFF74FFFA5490978491EC8B2D4
:1005B000FFF749FFA2498889FFF742FF2012FFF7A2
:1005C00042FFE0B2FFF73FFF9D494988491EC1F352
:1005D0000F20FFF738FF9A498978491EC8B2FFF704
:1005E00032FF6EE09648808845F21051884220D153
:1005F00093494889FFF724FF1812FFF724FF904919
:100600004989491C88B2FFF71BFFD8B2FFF71BFFCF
:100610008B498889FFF714FF2012FFF714FF8849E0
:100620008989491C88B2FFF70BFFE0B2FFF70BFF87
:1006300047E08348808849F2884188422ED180492A
:100640004889FFF7FDFE1812FFF7FDFED8B2FFF74D
:10065000FAFE7B490988491EC1F30F20FFF7F3FE1C
:1006600077490978491EC8B2FFF7EDFE74498889B9
:10067000FFF7E6FE2012FFF7E6FEE0B2FFF7E3FE2B
:100680006F494988491EC1F30F20FFF7DCFE6C4912
:100690008978491EC8B2FFF7D6FE12E06848807913
:1006A000012804D166480088401EC01A83B26449FC
:1006B00048891946FFF7D3FE614988892146FFF72B
:1006C000CEFE10BD2DE9F04105460E460024002760
:1006D000A0465B480088A84203DD59484088B042E4
:1006E00002DC0020BDE8F08131462846FFF7E4FE39
:1006F0005348808849F24131884217D05048808859
:1007000046F60401884211D04D48808845F21031E8
:1007100088420BD04A48808841F66311884205D050
:100720004748808849F28841884203D12E20FFF74C
:1007300087FE0DE04248808845F21051884204D17E
:100740004FF43850FFF77CFE02E02220FFF778FEDE
:100750003B48808849F22031884202D10220FFF7CD
:10076000A4FEFFF774FE04463548808841F6631105
:10077000884201D12046B5E70220FFF796FEFFF739
:1007800066FE04462E48808849F24131884211D0E5
:100790002B48808845F2103188420BD02848808849
:1007A00045F21051884205D02548808849F2884199
:1007B00088420AD10220FFF778FEFFF748FE804604
:1007C000E7B24FF6FF7000EA07271D48808849F21C
:1007D0002531884216D01A48808844F23551884223
:1007E00010D017488088091F88420BD01448808891
:1007F0004BF20551884205D0114880884CF20551D2
:10080000884201D120466DE70D48808849F2413188
:10081000884211D00A48808845F2103188420BD0B6
:100820000748808845F21051884205D004488088E6
:1008300049F2884188420CD1E01203E0FE07006CC7
:1008400038000020C002B91240EA411040EAE82016
:1008500048E72046FFF71CFE44E700B5F6488088CD
:1008600049F24131884217D0F348808846F60401A6
:10087000884211D0F048808845F2103188420BD070
:10088000ED48808841F66311884205D0EA488088A7
:1008900049F28841884203D12920FFF7D1FD0FE0BA
:1008A000E548808845F21051884204D14FF4245025
:1008B000FFF7C6FD04E040F273110720FFF7CFFDFC
:1008C00000BD00B5DC48808849F24131884217D02C
:1008D000D948808846F60401884211D0D6488088DD
:1008E00045F2103188420BD0D348808841F663111D
:1008F000884205D0D048808849F28841884203D197
:100900002820FFF79DFD0EE0CB48808845F210516E
:10091000884204D14FF42050FFF792FD03E00021FC
:100920000720FFF79CFD00BD70B50446002300269C
:10093000C148807901280BD1BF48808846F6040160
:10094000884205D0BC48808841F66311884208D1AE
:10095000B9488079F0B9B848808841F66311884277
:1009600018D1082C15D2DFE804F00406080A0C0E92
:10097000101206240DE007240BE0042409E00524EE
:1009800007E0012405E0002403E0032401E0022441
:1009900000BF00BFA848808849F2413188421DD07D
:1009A000A548808846F60401884217D0A24880886E
:1009B00045F21031884211D09F48808845F210518D
:1009C00088420BD09C48808841F66311884205D04C
:1009D0009948808849F2884188427DD1082C1CD2F0
:1009E000DFE804F00406090C0F12151800BF14E02C
:1009F00043F0800311E043F040030EE043F0C003F6
:100A00000BE043F0200308E043F0600305E043F00F
:100A1000A00302E043F0E00300BF00BF86488088E7
:100A200045F21051884202D14FF4585600E0362664
:100A30008148808845F2103188420DD07E488088F8
:100A400045F21051884207D07B48808841F66311F7
:100A5000884201D043F008037748808846F60401B5
:100A6000884201D143F0020319463046FFF7F7FCF4
:100A70007148808841F6631188421DD003F0200040
:100A800068B16D4800886C494988884214DA6A4820
:100A90000588408868490880084645800CE066481B
:100AA000008865494988884206DD63480588408892
:100AB00061490880084645805F48808845F21051AA
:100AC000884254D15C494889FFF7BAFC0020FFF7FF
:100AD000BAFC5949498900E078E0491C88B2FFF71F
:100AE000AFFC0020FFF7AFFC53494989891C88B24D
:100AF000FFF7A6FC50490988491EC1F30F20FFF7F4
:100B0000A2FC4D494989C91C88B2FFF799FC4A49A2
:100B10000978491EC8B2FFF796FC47498889FFF754
:100B20008FFC0020FFF78FFC43498989491C88B25C
:100B3000FFF786FC0020FFF786FC3F498989891C66
:100B400088B2FFF77DFC3C494988491EC1F30F205C
:100B5000FFF779FC38498989C91C88B2FFF770FC16
:100B600035498978491EC8B2FFF76DFC55E0324916
:100B70004889FFF765FC0020FFF765FC0020FFF7C0
:100B800062FC2D490988491EC1F30F20FFF75BFC69
:100B900029490978491EC8B2FFF755FC26498889BA
:100BA000FFF74EFC0020FFF74EFC0020FFF74BFC48
:100BB00021494988491EC1F30F20FFF744FC1E4913
:100BC0008978491EC8B2FFF73EFC26E0082C1CD2EB
:100BD000DFE804F004070A0D0F12151843F0300384
:100BE00013E043F0100310E043F020030DE000BFDA
:100BF0000BE043F0380308E043F0280305E043F03E
:100C0000180302E043F0080300BF00BF032643F4CB
:100C1000805319463046FFF722FC70BD30B50446BC
:100C20000D4629462046FFF747FCFFF728FC0348FE
:100C300000880349088030BD3800002014000020DF
:100C40000008006C30B503460C461546FE48808807
:100C500049F24131884205D0FB48808845F2103185
:100C6000884214D1F8494889FFF7EAFB1812FFF7C8
:100C7000EAFBD8B2FFF7E7FBF3498889FFF7E0FB0F
:100C80002012FFF7E0FBE0B2FFF7DDFBB3E0EE4838
:100C9000808845F21051884220D1EB494889FFF7FE
:100CA000CFFB1812FFF7CFFBE7494989491C88B2EF
:100CB000FFF7C6FBD8B2FFF7C6FBE3498889FFF709
:100CC000BFFB2012FFF7BFFBDF498989491C88B2AF
:100CD000FFF7B6FBE0B2FFF7B6FB8CE0DA4880889E
:100CE00041F66311884228D1D748807920B9D64887
:100CF0000088401EC01A83B2D3494889FFF7A0FB81
:100D00001812FFF7A0FBD8B2FFF79DFB1812FFF7F0
:100D10009AFBD8B2FFF797FBCB498889FFF790FB86
:100D20002012FFF790FBE0B2FFF78DFB2012FFF7D8
:100D30008AFBE0B2FFF787FB5DE0C348808846F698
:100D4000040188421DD1C0488079012804D1BE48E1
:100D50000088401EC01A83B2BB494889FFF770FB68
:100D60001812FFF770FBD8B2FFF76DFBB649888900
:100D7000FFF766FB2012FFF766FBE0B2FFF763FBAD
:100D800039E0B148808849F28841884220D1AE4993
:100D90004889FFF755FB1812FFF755FBD8B2FFF74C
:100DA00052FB1812FFF74FFBD8B2FFF74CFBA649D6
:100DB0008889FFF745FB2012FFF745FBE0B2FFF7FC
:100DC00042FB2012FFF73FFBE0B2FFF73CFB12E0D3
:100DD0009D488079012804D19B480088401EC01A94
:100DE00083B2994948891946FFF739FB96498889A2
:100DF0002146FFF734FB9448008994490880881CF9
:100E0000058030BD2DE9F0470446BE20FFF718FBF2
:100E10000520FFF718FB204606F0F3F807464FF0D1
:100E200066328B4B06F000F9054606F0BDF81FFA56
:100E300080F94846FFF707FB0120FFF704FBFF207E
:100E4000FFF701FB0020FFF7FEFA0020FFF7FBFA97
:100E5000BDE8F08710B50446002C73D17A4988713B
:100E6000F02008804FF4A07048800846808849F23E
:100E70004131884211D07448808846F60401884286
:100E80000BD07148808845F21031884205D06E48F9
:100E9000808849F28841884220D12C206A49088103
:100EA0002A2048812B2088810846808846F6040144
:100EB00088420BD06448808845F21031884205D0C2
:100EC0006148808849F28841884206D14FF4A07079
:100ED0005D4908804FF4F0704880B4E05A4880883B
:100EE00045F21051884210D14FF4305056490881D4
:100EF0004FF4285048814FF42C5088814FF4F07003
:100F000008804FF4487048809DE04F48808841F643
:100F1000631188420DD12C204B4908812B20488138
:100F20002A2088814FF4F07008804FF44870488080
:100F300089E022204449088120204881212088819D
:100F400081E0FFE70120404988714FF4A0700880DC
:100F5000F02048800846808849F2413188420BD011
:100F60003948808845F21031884205D0364880885B
:100F700049F2884188420DD12C20334908812A202A
:100F800048812B2088814FF4F07008804FF4A070C6
:100F900048803FE02C48808846F60401884207D10B
:100FA0002C20294908812B2048812A20888131E082
:100FB0002548808845F21051884210D14FF43050B6
:100FC000214908814FF4285048814FF42C508881E2
:100FD0004FF4487008804FF4F07048801AE01A48C7
:100FE000808841F6631188420DD12C201649088172
:100FF0002A2048812B2088814FF4487008804FF4C4
:10100000F070488006E022200F49088121204881A5
:10101000202088810C48808846F6040188420BD045
:101020000948808845F21031884205D006488088FA
:1010300049F28841884206D14FF4F0700249088095
:101040004FF4A070488005E038000020FE07006CD7
:10105000666604400020FFF767FC10BD2DE9F04FE5
:1010600086B004460D469046994604EB0800401EA3
:1010700086B205EB0900401E87B2FE48808849F21F
:10108000413188421BD0FB48808845F210318842AC
:1010900015D0F848808846F6040188420FD0F548FC
:1010A0008079012805D1F348808841F66311884290
:1010B00005D0F048808849F28841884220D1ED4926
:1010C0004889FFF7BDF92012FFF7BDF9E0B2FFF73D
:1010D000BAF93012FFF7B7F9F0B2FFF7B4F9E54902
:1010E0008889FFF7ADF92812FFF7ADF9E8B2FFF7ED
:1010F000AAF93812FFF7A7F9F8B2FFF7A4F9B8E098
:10110000DC48808841F66311884234D1D948008890
:10111000A0EB0800001B84B205EB0900401E1FFA7B
:1011200080F9D4494889FFF78BF92012FFF78BF932
:10113000E0B2FFF788F904EB0801491EC1F30F2064
:10114000FFF781F904EB0801491EC8B2FFF77BF9EC
:10115000C8498889FFF774F92812FFF774F9E8B2D3
:10116000FFF771F94FEA2920FFF76DF909F0FF0049
:10117000FFF769F97DE0BF48808845F21051884249
:1011800044D1BC494889FFF75BF92012FFF75BF9AE
:10119000B8494989491C88B2FFF752F9E0B2FFF714
:1011A00052F9B4494989891C88B2FFF749F93012CC
:1011B000FFF749F9AF494989C91C88B2FFF740F9DF
:1011C000F0B2FFF740F9AB498889FFF739F92812E7
:1011D000FFF739F9A7498989491C88B2FFF730F927
:1011E000E8B2FFF730F9A3498989891C88B2FFF773
:1011F00027F93812FFF727F99E498989C91C88B257
:10120000FFF71EF9F8B2FFF71EF932E0994880792E
:1012100001280ED1AA46BB4696480088801B401E76
:1012200080B2019093480088001B401E80B200905D
:1012300003E0A246B3460195009750200590512047
:101240000490522003905320029051460598FFF7D6
:1012500006F959460498FFF702F901990398FFF738
:10126000FEF800990298FFF7FAF829462046FFF7A2
:1012700023F906B0BDE8F08F70B5044600267D481E
:101280000588408845437B48808846F604018842AB
:1012900016D178488079012812D1002075498871CB
:1012A0002A2048812B20888100210846FFF704F975
:1012B0000120704988712B2048812A20888103E011
:1012C00000210846FFF7F8F8FFF7D9F8002602E0FA
:1012D00069480480761CAE42FAD370BD00B59FB059
:1012E0000121080205F099F801214FF4F47005F08E
:1012F000A1F80420ADF8780010208DF87B000320C1
:101300008DF87A001EA95D4804F0D8FD642004F031
:1013100014F90421594804F080FE642004F00DF90A
:101320000421564804F077FE642004F006F90120F9
:10133000ADF8780010208DF87B0003208DF87A003E
:101340001EA94F4804F0BAFD01214D4804F063FE88
:101350004CF23370ADF8780018208DF87B00032034
:101360008DF87A001EA9474804F0A8FD4FF680705A
:10137000ADF8780018208DF87B0003208DF87A00F6
:101380001EA93E4804F09AFD41F20100ADF8780034
:1013900018208DF87B0003208DF87A001EA93A48AA
:1013A00004F08CFD01200890002009900F200A9085
:1013B00000200B900C900D900E9001900290032055
:1013C00003900020049005900690079006200F904F
:1013D0000020109011901020129000201390159072
:1013E0001490169017904FF4805018900020199088
:1013F0004FF480401A9000201B9008A81C9001A870
:101400001D900FA804F040FA0121062004F0A4FB6F
:10141000322004F092F849F2884016498880084644
:101420008088FF280ADB084680884FF6FF718842D3
:1014300004D010488088B0F5134F7DD1D320FEF73B
:10144000FFFFFFF704F80B498880FFF700F8094910
:101450008880FEF7FCFF07498880084680884FF6A1
:10146000FF7101EA002003498880FEF7F0FF01497F
:1014700089880BE0380000200008006C001801404B
:10148000000C014000140140002001400843FE49C7
:1014900088800846808849F2413188424CD0FA4819
:1014A000808849F288418842F8D0BF20FEF7C8FF03
:1014B000FEF7CDFFF4498880FEF7C9FFF249888026
:1014C000FEF7C5FFF0498880FEF7C1FFEE4988802E
:1014D000084680884FF6FF7101EA0020EA498880BB
:1014E000FEF7B5FFE84989880843E7498880084640
:1014F000808846F6040188427AD0D420FEF7A0FF07
:10150000FEF7A5FFE0498880FEF7A1FFDE4988804D
:10151000FEF79DFFDC498880084680884FF6FF7102
:1015200001EA0020D8498880FEF791FFD6498988D2
:101530000843D549888000E05AE00846808845F293
:101540001031884254D04FF45A40FEF779FFFEF72D
:101550007EFFCD4988804FF45B40FEF771FFFEF7B8
:1015600076FFC9498880084680884FF6FF7101EAF6
:101570000020C54988804FF45C40FEF761FFFEF70C
:1015800066FFC14989880843BF498880084680882A
:10159000B0F5004F02D145F210508880BA488088DB
:1015A00045F21051884223D0A120FEF749FFFEF7F3
:1015B0004EFFB5498880FEF74AFFB3498880084648
:1015C00080884FF6FF7101EA0020AF498880FEF75E
:1015D0003EFFAD4989880843AB498880084680882A
:1015E00045F26171884203D141F66310A6498880B3
:1015F000A5488188A5A005F0ADFBA348808849F2E5
:10160000413188427ED1CF20FEF71AFF0020FEF73D
:101610001AFFC120FEF717FF3020FEF714FFED2060
:10162000FEF70EFF6420FEF70EFF0320FEF70BFF10
:101630001220FEF708FF8120FEF705FFE820FEF7E5
:10164000FFFE8520FEF7FFFE1020FEF7FCFE7A204D
:10165000FEF7F9FECB20FEF7F3FE3920FEF7F3FE8E
:101660002C20FEF7F0FE0020FEF7EDFE3420FEF702
:10167000EAFE0220FEF7E7FEF720FEF7E1FE20205B
:10168000FEF7E1FEEA20FEF7DBFE0020FEF7DBFEC0
:101690000020FEF7D8FEC020FEF7D2FE1B20FEF78A
:1016A000D2FEC120FEF7CCFE0120FEF7CCFEC52005
:1016B000FEF7C6FE3020FEF7C6FE3020FEF7C3FE62
:1016C000C720FEF7BDFEB720FEF7BDFE3620FEF7B1
:1016D000B7FE4820FEF7B7FE3A20FEF7B1FE5520D0
:1016E000FEF7B1FEB120FEF7ABFE0020FEF7ABFE29
:1016F0001A20FEF7A8FEB620FEF7A2FE0A20FEF78B
:10170000A2FE00E097E0A220FEF79DFEF220FEF789
:1017100097FE0020FEF797FE2620FEF791FE01209F
:10172000FEF791FEE020FEF78BFE0F20FEF78BFE0A
:101730002A20FEF788FE2820FEF785FE0820FEF707
:1017400082FE0E20FEF77FFE0820FEF77CFE54206E
:10175000FEF779FEA920FEF776FE4320FEF773FE22
:101760000A20FEF770FE0F20FEF76DFE0020FEF748
:101770006AFE0020FEF767FE0020FEF764FE0020F0
:10178000FEF761FEE120FEF75BFE0020FEF75BFE48
:101790001520FEF758FE1720FEF755FE0720FEF72E
:1017A00052FE1120FEF74FFE0620FEF74CFE2B20C6
:1017B000FEF749FE5620FEF746FE3C20FEF743FEAC
:1017C0000520FEF740FE1020FEF73DFE0F20FEF73D
:1017D0003AFE3F20FEF737FE3F20FEF734FE0F2093
:1017E000FEF731FE2B20FEF72BFE0020FEF72BFE2E
:1017F0000020FEF728FE0120FEF725FE3F20FEF721
:1018000022FE2A20FEF71CFE0020FEF71CFE002010
:10181000FEF719FE0020FEF716FEEF20FEF713FE7E
:101820001120FEF70DFE782003F087FE2920FEF739
:1018300007FE03F0FDB91448808849F288418842C8
:101840007ED1F720FEF7FCFDA920FEF7FCFD51201C
:10185000FEF7F9FD2C20FEF7F6FD8220FEF7F3FDE2
:10186000C020FEF7EDFD1120FEF7EDFD0920FEF78B
:10187000EAFDC120FEF7E4FD4120FEF7E4FDC520AE
:10188000FEF7DEFD002009E038000020204C434434
:101890002049443A25780D0A00000000FEF7D3FDE8
:1018A0000A20FEF7D0FD8020FEF7CDFDB120FEF727
:1018B000C7FDB020FEF7C7FD1120FEF7C4FDB42020
:1018C000FEF7BEFD0220FEF7BEFDB620FEF7B8FD16
:1018D0000220FEF7B8FD2220FEF7B5FDB720FEF787
:1018E000AFFDC620FEF7AFFDBE20FEF7A9FD00202C
:1018F000FEF7A9FD0420FEF7A6FDE920FEF7A0FDF6
:101900000020FEF7A0FD3620FEF79AFD0820FEF726
:101910009AFD3A20FEF794FD5520FEF794FDE02055
:10192000FEF78EFD0020FEF78EFD0720FEF78BFDF3
:101930001020FEF788FD0920FEF785FD172000E046
:1019400059E0FEF780FD0B20FEF77DFD4120FEF7FC
:101950007AFD8920FEF777FD4B20FEF774FD0A2003
:10196000FEF771FD0C20FEF76EFD0E20FEF76BFDFD
:101970001820FEF768FD1B20FEF765FD0F20FEF71F
:1019800062FDE120FEF75CFD0020FEF75CFD172004
:10199000FEF759FD1A20FEF756FD0420FEF753FD11
:1019A0000E20FEF750FD0620FEF74DFD2F20FEF71E
:1019B0004AFD4520FEF747FD4320FEF744FD022087
:1019C000FEF741FD0A20FEF73EFD0920FEF73BFD34
:1019D0003220FEF738FD3620FEF735FD0F20FEF7EA
:1019E00032FD1120FEF72CFD782003F0A6FD292002
:1019F000FEF726FD1DE7FE48808846F60401884272
:101A00007ED11120FEF71CFD142003F096FDD0209E
:101A1000FEF716FD0720FEF716FD4220FEF713FD28
:101A20001D20FEF710FDD120FEF70AFD0020FEF775
:101A30000AFD1A20FEF707FD0920FEF704FDD2205B
:101A4000FEF7FEFC0120FEF7FEFC2220FEF7FBFC69
:101A5000C020FEF7F5FC1020FEF7F5FC3B20FEF75A
:101A6000F2FC0020FEF7EFFC0220FEF7ECFC112058
:101A7000FEF7E9FCC520FEF7E3FC0320FEF7E3FCDC
:101A8000C820FEF7DDFC0020FEF7DDFC2520FEF778
:101A9000DAFC2120FEF7D7FC0520FEF7D4FC00205D
:101AA000FEF7D1FC0A20FEF7CEFC6520FEF7CBFC4A
:101AB0002520FEF7C8FC7720FEF7C5FC5020FEF776
:101AC000C2FC0F20FEF7BFFC0020FEF7BCFCF82094
:101AD000FEF7B6FC0120FEF7B6FCFE20FEF7B0FCD8
:101AE0000020FEF7B0FC0220FEF7ADFC2020FEF740
:101AF000A7FC3620FEF7A4FC0820FEF7A4FC00E0BB
:101B00002AE03A20FEF79CFC5520FEF79CFC2B2097
:101B1000FEF796FC0020FEF796FC0020FEF793FCF3
:101B20000120FEF790FC3F20FEF78DFC2A20FEF7F7
:101B300087FC0020FEF787FC0020FEF784FC0120D4
:101B4000FEF781FCDF20FEF77EFC782003F0F5FC39
:101B50002920FEF775FC6CE6A548808845F2103117
:101B6000884240F07C87ED20FEF76AFC0120FEF7FA
:101B70006AFCFE20FEF767FCEE20FEF761FCDE202B
:101B8000FEF761FC2120FEF75EFCF120FEF758FC19
:101B90000120FEF758FCDF20FEF752FC1020FEF774
:101BA00052FCC420FEF74CFC8F20FEF74CFCC620F4
:101BB000FEF746FC0020FEF746FCE220FEF743FC61
:101BC000E220FEF740FCE220FEF73DFCBF20FEF7DE
:101BD00037FCAA20FEF737FCB020FEF731FC0D20C1
:101BE000FEF731FC0020FEF72EFC0D20FEF72BFC4B
:101BF0000020FEF728FC1120FEF725FC0020FEF750
:101C000022FC1920FEF71FFC0020FEF71CFC2120FF
:101C1000FEF719FC0020FEF716FC2D20FEF713FC42
:101C20000020FEF710FC3D20FEF70DFC0020FEF723
:101C30000AFC5D20FEF707FC0020FEF704FC5D2097
:101C4000FEF701FC0020FEF7FEFBB120FEF7F8FBDB
:101C50008020FEF7F8FB0020FEF7F5FB8B20FEF757
:101C6000F2FB0020FEF7EFFB9620FEF7ECFB0020D6
:101C7000FEF7E9FBB220FEF7E3FB0020FEF7E3FBF3
:101C80000020FEF7E0FB0220FEF7DDFB0020FEF760
:101C9000DAFB0320FEF7D7FB0020FEF7D4FBB320CE
:101CA000FEF7CEFB0020FEF7CEFB0020FEF7CBFBBD
:101CB0000020FEF7C8FB0020FEF7C5FB0020FEF762
:101CC000C2FB0020FEF7BFFB0020FEF7BCFB00209C
:101CD000FEF7B9FB0020FEF7B6FB0020FEF7B3FBD2
:101CE0000020FEF7B0FB0020FEF7ADFB0020FEF762
:101CF000AAFB0020FEF7A7FB0020FEF7A4FB0020B4
:101D0000FEF7A1FB0020FEF79EFB0020FEF79BFBE9
:101D10000020FEF798FB0020FEF795FB0020FEF761
:101D200092FB0020FEF78FFB0020FEF78CFB0020CB
:101D3000FEF789FBB420FEF783FB8B20FEF783FBC5
:101D40000020FEF780FB9620FEF77DFB0020FEF7CB
:101D50007AFBA120FEF777FB0020FEF774FBB5208D
:101D6000FEF76EFB0220FEF76EFB0020FEF76BFB1A
:101D70000320FEF768FB0020FEF765FB0420FEF75A
:101D800062FB0020FEF75FFBB620FEF759FB002048
:101D9000FEF759FB0020FEF756FBB720FEF750FB7D
:101DA0000020FEF750FB0020FEF74DFB3F20FEF722
:101DB0004AFB0020FEF747FB5E20FEF744FB0020B5
:101DC000FEF741FB6420FEF73EFB0020FEF73BFBE5
:101DD0008C20FEF738FB0020FEF735FBAC20FEF729
:101DE00032FB0020FEF72FFBDC20FEF72CFB01E08E
:101DF000380000200020FEF726FB7020FEF723FBB2
:101E00000020FEF720FB9020FEF71DFB0020FEF7D0
:101E10001AFBEB20FEF717FB0020FEF714FBDC207B
:101E2000FEF711FB0020FEF70EFBB820FEF708FBC3
:101E30000020FEF708FB0020FEF705FB0020FEF760
:101E400002FB0020FEF7FFFA0020FEF7FCFA00205C
:101E5000FEF7F9FA0020FEF7F6FA0020FEF7F3FA93
:101E6000BA20FEF7EDFA2420FEF7EDFA0020FEF787
:101E7000EAFA0020FEF7E7FA0020FEF7E4FAC120B4
:101E8000FEF7DEFA2020FEF7DEFA0020FEF7DBFA8E
:101E90005420FEF7D8FA0020FEF7D5FAFF20FEF70F
:101EA000D2FA0020FEF7CFFAC220FEF7C9FA0A20C4
:101EB000FEF7C9FA0020FEF7C6FA0420FEF7C3FABF
:101EC0000020FEF7C0FAC320FEF7BAFA3C20FEF766
:101ED000BAFA0020FEF7B7FA3A20FEF7B4FA00206B
:101EE000FEF7B1FA3920FEF7AEFA0020FEF7ABFAA2
:101EF0003720FEF7A8FA0020FEF7A5FA3C20FEF7EF
:101F0000A2FA0020FEF79FFA3620FEF79CFA002086
:101F1000FEF799FA3220FEF796FA0020FEF793FAC0
:101F20002F20FEF790FA0020FEF78DFA2C20FEF706
:101F30008AFA0020FEF787FA2920FEF784FA0020AB
:101F4000FEF781FA2620FEF77EFA0020FEF77BFAE4
:101F50002420FEF778FA0020FEF775FA2420FEF719
:101F600072FA0020FEF76FFA2320FEF76CFA0020C9
:101F7000FEF769FA3C20FEF766FA0020FEF763FAE6
:101F80003620FEF760FA0020FEF75DFA3220FEF7F9
:101F90005AFA0020FEF757FA2F20FEF754FA0020D5
:101FA000FEF751FA2C20FEF74EFA0020FEF74BFA0E
:101FB0002920FEF748FA0020FEF745FA2620FEF712
:101FC00042FA0020FEF73FFA2420FEF73CFA0020F8
:101FD000FEF739FA2420FEF736FA0020FEF733FA2E
:101FE0002320FEF730FA0020FEF72DFAC420FEF77A
:101FF00027FA6220FEF727FA0020FEF724FA0520D0
:10200000FEF721FA0020FEF71EFA8420FEF71BFAE5
:102010000020FEF718FAF020FEF715FA0020FEF770
:1020200012FA1820FEF70FFA0020FEF70CFAA4208F
:10203000FEF709FA0020FEF706FA1820FEF703FA69
:102040000020FEF700FA5020FEF7FDF90020FEF711
:10205000FAF90C20FEF7F7F90020FEF7F4F9172043
:10206000FEF7F1F90020FEF7EEF99520FEF7EBF907
:102070000020FEF7E8F9F320FEF7E5F90020FEF76F
:10208000E2F9E620FEF7DFF90020FEF7DCF9C520D3
:10209000FEF7D6F93220FEF7D6F90020FEF7D3F985
:1020A0004420FEF7D0F90020FEF7CDF96520FEF7B9
:1020B000CAF90020FEF7C7F97620FEF7C4F9002020
:1020C000FEF7C1F98820FEF7BEF90020FEF7BBF944
:1020D000C620FEF7B5F92020FEF7B5F90020FEF77F
:1020E000B2F91720FEF7AFF90020FEF7ACF9012096
:1020F000FEF7A9F90020FEF7A6F9C720FEF7A0F920
:102100000020FEF7A0F90020FEF79DF90020FEF761
:102110009AF90020FEF797F9C820FEF791F9002000
:10212000FEF791F90020FEF78EF90020FEF78BF9FB
:102130000020FEF788F9C920FEF782F90020FEF79B
:1021400082F90020FEF77FF90020FEF77CF90020DD
:10215000FEF779F90020FEF776F90020FEF773F913
:102160000020FEF770F90020FEF76DF90020FEF761
:102170006AF90020FEF767F90020FEF764F90020F5
:10218000FEF761F90020FEF75EF90020FEF75BF92B
:102190000020FEF758F90020FEF755F9E020FEF781
:1021A0004FF91620FEF74FF90020FEF74CF91C20DE
:1021B000FEF749F90020FEF746F92120FEF743F922
:1021C0000020FEF740F93620FEF73DF90020FEF72B
:1021D0003AF94620FEF737F90020FEF734F952208D
:1021E000FEF731F90020FEF72EF96420FEF72BF9F7
:1021F0000020FEF728F97A20FEF725F90020FEF7E7
:1022000022F98B20FEF71FF90020FEF71CF9992018
:10221000FEF719F90020FEF716F9A820FEF713F9CA
:102220000020FEF710F9B920FEF70DF90020FEF7A7
:102230000AF9C420FEF707F90020FEF704F9CA20C6
:10224000FEF701F90020FEF7FEF8D220FEF7FBF8BA
:102250000020FEF7F8F8D920FEF7F5F80020FEF789
:10226000F2F8E020FEF7EFF80020FEF7ECF8F3209C
:10227000FEF7E9F80020FEF7E6F8E120FEF7E0F8C7
:102280001620FEF7E0F80020FEF7DDF81C20FEF730
:10229000DAF80020FEF7D7F82220FEF7D4F8002065
:1022A000FEF7D1F83620FEF7CEF80020FEF7CBF887
:1022B0004520FEF7C8F80020FEF7C5F85220FEF7CB
:1022C000C2F80020FEF7BFF86420FEF7BCF800203B
:1022D000FEF7B9F87A20FEF7B6F80020FEF7B3F85B
:1022E0008B20FEF7B0F80020FEF7ADF89920FEF73E
:1022F000AAF80020FEF7A7F8A820FEF7A4F800200F
:10230000FEF7A1F8B920FEF79EF80020FEF79BF833
:10231000C420FEF798F80020FEF795F8CA20FEF7D3
:1023200092F80020FEF78FF8D220FEF78CF80020FC
:10233000FEF789F8D820FEF786F80020FEF783F82C
:10234000E020FEF780F80020FEF77DF8F320FEF78E
:102350007AF80020FEF777F8E220FEF771F8052002
:10236000FEF771F80020FEF76EF80B20FEF76BF811
:102370000020FEF768F81B20FEF765F80020FEF746
:1023800062F83420FEF75FF80020FEF75CF8442086
:10239000FEF759F80020FEF756F84F20FEF753F8E5
:1023A0000020FEF750F86120FEF74DF80020FEF700
:1023B0004AF87920FEF747F80020FEF744F8882015
:1023C000FEF741F80020FEF73EF89720FEF73BF8B5
:1023D0000020FEF738F8A620FEF735F80020FEF7BB
:1023E00032F8B720FEF72FF80020FEF72CF8C220B5
:1023F000FEF729F80020FEF726F8C720FEF723F89D
:102400000020FEF720F8D120FEF71DF80020FEF78F
:102410001AF8D620FEF717F80020FEF714F8DD2092
:10242000FEF711F80020FEF70EF8F320FEF70BF888
:102430000020FEF708F8E320FEF702F80520FEF77B
:1024400002F80020FDF7FFFF0A20FDF7FCFF002047
:10245000FDF7F9FF1C20FDF7F6FF0020FDF7F3FF65
:102460003320FDF7F0FF0020FDF7EDFF4420FDF7DE
:10247000EAFF0020FDF7E7FF5020FDF7E4FF002012
:10248000FDF7E1FF6220FDF7DEFF0020FDF7DBFF37
:102490007820FDF7D8FF0020FDF7D5FF8820FDF755
:1024A000D2FF0020FDF7CFFF9720FDF7CCFF0020E3
:1024B000FDF7C9FFA620FDF7C6FF0020FDF7C3FF0B
:1024C000B720FDF7C0FF0020FDF7BDFFC220FDF7DC
:1024D000BAFF0020FDF7B7FFC720FDF7B4FF0020CB
:1024E000FDF7B1FFD120FDF7AEFF0020FDF7ABFFF8
:1024F000D520FDF7A8FF0020FDF7A5FFDD20FDF7A3
:10250000A2FF0020FDF79FFFF320FDF79CFF0020B6
:10251000FDF799FFE420FDF793FF0120FDF793FFFE
:102520000020FDF790FF0120FDF78DFF0020FDF753
:102530008AFF0220FDF787FF0020FDF784FF2A2095
:10254000FDF781FF0020FDF77EFF3C20FDF77BFFBC
:102550000020FDF778FF4B20FDF775FF0020FDF709
:1025600072FF5D20FDF76FFF0020FDF76CFF742008
:10257000FDF769FF0020FDF766FF8420FDF763FF8C
:102580000020FDF760FF9320FDF75DFF0020FDF7C1
:102590005AFFA220FDF757FF0020FDF754FFB3209C
:1025A000FDF751FF0020FDF74EFFBE20FDF74BFF6A
:1025B0000020FDF748FFC420FDF745FF0020FDF790
:1025C00042FFCD20FDF73FFF0020FDF73CFFD32069
:1025D000FDF739FF0020FDF736FFDD20FDF733FF63
:1025E0000020FDF730FFF320FDF72DFF0020FDF761
:1025F0002AFFE520FDF724FF0020FDF724FF00203F
:10260000FDF721FF0020FDF71EFF0020FDF71BFF57
:102610000220FDF718FF0020FDF715FF2920FDF728
:1026200012FF0020FDF70FFF3C20FDF70CFF0020FC
:10263000FDF709FF4B20FDF706FF0020FDF703FF24
:102640005D20FDF700FF0020FDF7FDFE7420FDF783
:10265000FAFE0020FDF7F7FE8420FDF7F4FE0020CF
:10266000FDF7F1FE9320FDF7EEFE0020FDF7EBFEF7
:10267000A220FDF7E8FE0020FDF7E5FEB320FDF700
:10268000E2FE0020FDF7DFFEBE20FDF7DCFE0020AD
:10269000FDF7D9FEC420FDF7D6FE0020FDF7D3FEDE
:1026A000CD20FDF7D0FE0020FDF7CDFED320FDF7B5
:1026B000CAFE0020FDF7C7FEDC20FDF7C4FE0020A7
:1026C000FDF7C1FEF320FDF7BEFE0020FDF7BBFEC7
:1026D000E620FDF7B5FE1120FDF7B5FE0020FDF761
:1026E000B2FE3420FDF7AFFE0020FDF7ACFE562011
:1026F000FDF7A9FE0020FDF7A6FE7620FDF7A3FE5C
:102700000020FDF7A0FE7720FDF79DFE0020FDF7DD
:102710009AFE6620FDF797FE0020FDF794FE8820C4
:10272000FDF791FE0020FDF78EFE9920FDF78BFE50
:102730000020FDF788FEBB20FDF785FE0020FDF799
:1027400082FE9920FDF77FFE0020FDF77CFE6620CB
:10275000FDF779FE0020FDF776FE5520FDF773FEAC
:102760000020FDF770FE5520FDF76DFE0020FDF7FF
:102770006AFE4520FDF767FE0020FDF764FE43205A
:10278000FDF761FE0020FDF75EFE4420FDF75BFED5
:102790000020FDF758FEE720FDF752FE3220FDF73E
:1027A00052FE0020FDF74FFE5520FDF74CFE0020A5
:1027B000FDF749FE7620FDF746FE0020FDF743FEBB
:1027C0006620FDF740FE0020FDF73DFE6720FDF787
:1027D0003AFE0020FDF737FE6720FDF734FE0020AB
:1027E000FDF731FE8720FDF72EFE0020FDF72BFEC2
:1027F0009920FDF728FE0020FDF725FEBB20FDF700
:1028000022FE0020FDF71FFE9920FDF71CFE002090
:10281000FDF719FE7720FDF716FE0020FDF713FEE9
:102820004420FDF710FE0020FDF70DFE5620FDF7B9
:102830000AFE0020FDF707FE2320FDF704FE00201E
:10284000FDF701FE3320FDF7FEFD0020FDF7FBFD47
:102850004520FDF7F8FD0020FDF7F5FDE820FDF728
:10286000EFFD0020FDF7EFFD0020FDF7ECFD9920C6
:10287000FDF7E9FD0020FDF7E6FD8720FDF7E3FD0C
:102880000020FDF7E0FD8820FDF7DDFD0020FDF7CD
:10289000DAFD7720FDF7D7FD0020FDF7D4FD662097
:1028A000FDF7D1FD0020FDF7CEFD8820FDF7CBFD23
:1028B0000020FDF7C8FDAA20FDF7C5FD0020FDF7AB
:1028C000C2FDBB20FDF7BFFD0020FDF7BCFD992038
:1028D000FDF7B9FD0020FDF7B6FD6620FDF7B3FD5D
:1028E0000020FDF7B0FD5520FDF7ADFD0020FDF700
:1028F000AAFD5520FDF7A7FD0020FDF7A4FD44200B
:10290000FDF7A1FD0020FDF79EFD4420FDF79BFD96
:102910000020FDF798FD5520FDF795FD0020FDF7FF
:1029200092FDE920FDF78CFDAA20FDF78CFD00202B
:10293000FDF789FD0020FDF786FD0020FDF783FDF2
:102940000020FDF77DFDAA20FDF77DFDCF20FDF7DE
:1029500077FD0020FDF777FD0020FDF774FD0020D6
:10296000FDF771FD0020FDF76EFD0020FDF76BFD0A
:102970000020FDF768FD0020FDF765FD0020FDF754
:1029800062FD0020FDF75FFD0020FDF75CFD0020EB
:10299000FDF759FD0020FDF756FD0020FDF753FD22
:1029A0000020FDF750FD0020FDF74DFD0020FDF754
:1029B0004AFD0020FDF747FDF020FDF741FD002016
:1029C000FDF741FD5020FDF73EFD0020FDF73BFDEA
:1029D0000020FDF738FD0020FDF735FDF320FDF761
:1029E0002FFD0020FDF72FFDF920FDF729FD062022
:1029F000FDF729FD1020FDF726FD2920FDF723FD19
:102A00000020FDF720FD3A20FDF71AFD5520FDF7C7
:102A10001AFD1120FDF714FD642002F08EFD29201F
:102A2000FDF70EFD3520FDF70BFD0020FDF70BFD3A
:102A30005120FDF705FDFF20FDF705FD5320FDF7B3
:102A4000FFFC2C20FDF7FFFC5520FDF7F9FC822050
:102A5000FDF7F9FC2C20FDF7F3FC02F0E9B8FE4885
:102A6000808845F2105188427ED155214FF4704044
:102A7000FDF7F5FCAA214FF20100FDF7F0FC522111
:102A80004FF20200FDF7EBFC08214FF20300FDF7C7
:102A9000E6FC01214FF20400FDF7E1FC0D214FF4AB
:102AA0003040FDF7DCFC0D214BF20100FDF7D7FCB7
:102AB0000D214BF20200FDF7D2FC34214FF43640D9
:102AC000FDF7CDFC34214BF20160FDF7C8FC342149
:102AD0004BF20260FDF7C3FC0D214FF43140FDF7CE
:102AE000BEFC0D214BF20110FDF7B9FC0D214BF29C
:102AF0000210FDF7B4FC34214FF43740FDF7AFFC72
:102B000034214BF20170FDF7AAFC34214BF2027024
:102B1000FDF7A5FC00214FF43240FDF7A0FC002199
:102B20004BF20120FDF79BFC00214BF20220FDF748
:102B300096FC24214FF43840FDF791FC24214BF6FC
:102B40000100FDF78CFC24214BF60200FDF787FC09
:102B500001214FF43F40FDF782FC0F214FF4334039
:102B6000FDF77DFC0F2100E0FEE34BF20130FDF7A5
:102B700076FC0F214BF20230FDF771FC34214FF44B
:102B80003940FDF76CFC34214BF60110FDF767FC72
:102B900034214BF60210FDF762FC08214FF435405A
:102BA000FDF75DFC08214BF20150FDF758FC0821B0
:102BB0004BF20250FDF753FC03214FF44240FDF766
:102BC0004EFC24214FF43A40FDF749FC24214BF6FA
:102BD0000120FDF744FC24214BF60220FDF73FFCC9
:102BE00000214FF43C40FDF73AFC78214BF60140C0
:102BF000FDF735FC00214BF60240FDF730FC0021CB
:102C00004FF43D40FDF72BFC78214BF60150FDF7CA
:102C100026FC00214BF60250FDF721FC00214FF469
:102C20003E40FDF71CFC64214BF60160FDF717FCEC
:102C300000214FF45140FDF712FC33214DF20110F9
:102C4000FDF70DFC00214DF20210FDF708FC3421C8
:102C50004DF20310FDF703FC00214DF20410FDF7C7
:102C6000FEFB3A214DF20510FDF7F9FB00214DF274
:102C70000610FDF7F4FB4A214DF20710FDF7EFFBBC
:102C800000214DF20810FDF7EAFB5C214DF209101E
:102C9000FDF7E5FB00214DF20A10FDF7E0FB812175
:102CA0004DF20B10FDF7DBFB00214DF20C10FDF790
:102CB000D6FBA6214DF20D10FDF7D1FB00214DF200
:102CC0000E10FDF7CCFBE5214DF20F10FDF7C7FB11
:102CD00001214DF21010FDF7C2FB13214DF211102E
:102CE000FDF7BDFB01214DF21210FDF7B8FB542199
:102CF0004DF21310FDF7B3FB01214DF21410FDF757
:102D0000AEFB82214DF21510FDF7A9FB01214DF21A
:102D10001610FDF7A4FBCA214DF21710FDF79FFB1B
:102D200002214DF21810FDF79AFB00214DF2191007
:102D3000FDF795FB02214DF21A10FDF790FB0121E2
:102D40004DF21B10FDF78BFB02214DF21C10FDF71D
:102D500086FB34214DF21D10FDF781FB02214DF25F
:102D60001E10FDF77CFB67214DF21F10FDF777FB6E
:102D700002214DF22010FDF772FB84214DF221104B
:102D8000FDF76DFB02214DF22210FDF768FBA42137
:102D90004DF22310FDF763FB02214DF22410FDF7E5
:102DA0005EFBB7214DF22510FDF759FB02214DF2D4
:102DB0002610FDF754FBCF214DF22710FDF74FFBF6
:102DC00002214DF22810FDF74AFBDE214DF22910B9
:102DD000FDF745FB02214DF22A10FDF740FBF221E1
:102DE0004DF22B10FDF73BFB02214DF22C10FDF7AD
:102DF00036FBFE214DF22D10FDF731FB03214DF284
:102E00002E10FDF72CFB10214DF22F10FDF727FBA4
:102E100003214DF23010FDF722FB33214DF231102A
:102E2000FDF71DFB03214DF23210FDF718FB6D215C
:102E30004DF23310FDF713FB00214FF45240FDF724
:102E40000EFB33214DF20120FDF709FB00214DF26D
:102E50000220FDF704FB01E03800002034214DF290
:102E60000320FDF7FCFA00214DF20420FDF7F7FAEC
:102E70003A214DF20520FDF7F2FA00214DF206202D
:102E8000FDF7EDFA4A214DF20720FDF7E8FA00219F
:102E90004DF20820FDF7E3FA5C214DF20920FDF721
:102EA000DEFA00214DF20A20FDF7D9FA81214DF218
:102EB0000B20FDF7D4FA00214DF20C20FDF7CFFADC
:102EC000A6214DF20D20FDF7CAFA00214DF20E2089
:102ED000FDF7C5FAE5214DF20F20FDF7C0FA0121FB
:102EE0004DF21020FDF7BBFA13214DF21120FDF732
:102EF000B6FA01214DF21220FDF7B1FA54214DF23C
:102F00001320FDF7ACFA01214DF21420FDF7A7FACA
:102F100082214DF21520FDF7A2FA01214DF2162073
:102F2000FDF79DFACA214DF21720FDF798FA02210C
:102F30004DF21820FDF793FA00214DF21920FDF70C
:102F40008EFA02214DF21A20FDF789FA01214DF285
:102F50001B20FDF784FA02214DF21C20FDF77FFAB9
:102F600034214DF21D20FDF77AFA02214DF21E2088
:102F7000FDF775FA67214DF21F20FDF770FA022167
:102F80004DF22020FDF76BFA84214DF22120FDF750
:102F900066FA02214DF22220FDF761FAA4214DF2DA
:102FA0002320FDF75CFA02214DF22420FDF757FAA9
:102FB000B7214DF22520FDF752FA02214DF22620CD
:102FC000FDF74DFACF214DF22720FDF748FA0221F7
:102FD0004DF22820FDF743FADE214DF22920FDF7BE
:102FE0003EFA02214DF22A20FDF739FAF2214DF284
:102FF0002B20FDF734FA02214DF22C20FDF72FFA99
:10300000FE214DF22D20FDF72AFA03214DF22E204C
:10301000FDF725FA10214DF22F20FDF720FA0321AC
:103020004DF23020FDF71BFA33214DF23120FDF730
:1030300016FA03214DF23220FDF711FA6D214DF2FF
:103040003320FDF70CFA00214FF45340FDF707FA47
:1030500033214DF20130FDF702FA00214DF202302A
:10306000FDF7FDF934214DF20330FDF7F8F90021A9
:103070004DF20430FDF7F3F93A214DF20530FDF73A
:10308000EEF900214DF20630FDF7E9F94A214DF243
:103090000730FDF7E4F900214DF20830FDF7DFF9C4
:1030A0005C214DF20930FDF7DAF900214DF20A30CA
:1030B000FDF7D5F981214DF20B30FDF7D0F9002154
:1030C0004DF20C30FDF7CBF9A6214DF20D30FDF796
:1030D000C6F900214DF20E30FDF7C1F9E5214DF2A0
:1030E0000F30FDF7BCF901214DF21030FDF7B7F9B3
:1030F00013214DF21130FDF7B2F901214DF21230DA
:10310000FDF7ADF954214DF21330FDF7A8F9012177
:103110004DF21430FDF7A3F982214DF21530FDF781
:103120009EF901214DF21630FDF799F9CA214DF2B1
:103130001730FDF794F902214DF21830FDF78FF9A1
:1031400000214DF21930FDF78AF902214DF21A30B3
:10315000FDF785F901214DF21B30FDF780F90221C1
:103160004DF21C30FDF77BF934214DF21D30FDF797
:1031700076F902214DF21E30FDF771F967214DF20B
:103180001F30FDF76CF902214DF22030FDF767F991
:1031900084214DF22130FDF762F902214DF22230F7
:1031A000FDF75DF9A4214DF22330FDF758F9022116
:1031B0004DF22430FDF753F9B7214DF22530FDF7DC
:1031C0004EF902214DF22630FDF749F9CF214DF29B
:1031D0002730FDF744F902214DF22830FDF73FF981
:1031E000DE214DF22930FDF73AF902214DF22A3065
:1031F000FDF735F9F2214DF22B30FDF730F90221C0
:103200004DF22C30FDF72BF9FE214DF22D30FDF75C
:1032100026F903214DF22E30FDF721F910214DF250
:103220002F30FDF71CF903214DF23030FDF717F96F
:1032300033214DF23130FDF712F903214DF23230D6
:10324000FDF70DF96D214DF23330FDF708F900213E
:103250004FF45440FDF703F933214DF20140FDF7DF
:10326000FEF800214DF20240FDF7F9F834214DF24D
:103270000340FDF7F4F800214DF20440FDF7EFF8AC
:103280003A214DF20540FDF7EAF800214DF20640E3
:10329000FDF7E5F84A214DF20740FDF7E0F800217F
:1032A0004DF20840FDF7DBF85C214DF20940FDF7D7
:1032B000D6F800214DF20A40FDF7D1F881214DF2F8
:1032C0000B40FDF7CCF800214DF20C40FDF7C7F89C
:1032D000A6214DF20D40FDF7C2F800214DF20E403F
:1032E000FDF7BDF8E5214DF20F40FDF7B8F80121DB
:1032F0004DF21040FDF7B3F813214DF21140FDF7E8
:10330000AEF801214DF21240FDF7A9F854214DF21B
:103310001340FDF7A4F801214DF21440FDF79FF88A
:1033200082214DF21540FDF79AF801214DF2164029
:10333000FDF795F8CA214DF21740FDF790F80221EC
:103340004DF21840FDF78BF800214DF21940FDF7C2
:1033500086F802214DF21A40FDF781F801214DF265
:103360001B40FDF77CF800E004E302214DF21C4015
:10337000FDF775F834214DF21D40FDF770F802217C
:103380004DF21E40FDF76BF867214DF21F40FDF72F
:1033900066F802214DF22040FDF761F884214DF2DC
:1033A0002140FDF75CF802214DF22240FDF757F86D
:1033B000A4214DF22340FDF752F802214DF22440A2
:1033C000FDF74DF8B7214DF22540FDF748F80221F1
:1033D0004DF22640FDF743F8CF214DF22740FDF78F
:1033E0003EF802214DF22840FDF739F8DE214DF27A
:1033F0002940FDF734F802214DF22A40FDF72FF85D
:10340000F2214DF22B40FDF72AF802214DF22C401B
:10341000FDF725F8FE214DF22D40FDF720F80321A0
:103420004DF22E40FDF71BF810214DF22F40FDF715
:1034300016F803214DF23040FDF711F833214DF21B
:103440003140FDF70CF803214DF23240FDF707F84B
:103450006D214DF23340FDF702F800214FF4554045
:10346000FCF7FDFF33214DF20150FCF7F8FF00217E
:103470004DF20250FCF7F3FF34214DF20350FCF7FC
:10348000EEFF00214DF20450FCF7E9FF3A214DF226
:103490000550FCF7E4FF00214DF20650FCF7DFFF7A
:1034A0004A214DF20750FCF7DAFF00214DF2085097
:1034B000FCF7D5FF5C214DF20950FCF7D0FF00214D
:1034C0004DF20A50FCF7CBFF81214DF20B50FCF777
:1034D000C6FF00214DF20C50FCF7C1FFA6214DF2B2
:1034E0000D50FCF7BCFF00214DF20E50FCF7B7FF6A
:1034F000E5214DF20F50FCF7B2FF01214DF21050C3
:10350000FCF7ADFF13214DF21150FCF7A8FF01218C
:103510004DF21250FCF7A3FF54214DF21350FCF76B
:103520009EFF01214DF21450FCF799FF82214DF2CC
:103530001550FCF794FF01214DF21650FCF78FFF58
:10354000CA214DF21750FCF78AFF02214DF21850A4
:10355000FCF785FF00214DF21950FCF780FF022196
:103560004DF21A50FCF77BFF01214DF21B50FCF786
:1035700076FF02214DF21C50FCF771FF34214DF211
:103580001D50FCF76CFF02214DF21E50FCF767FF47
:1035900067214DF21F50FCF762FF02214DF22050CF
:1035A000FCF75DFF84214DF22150FCF758FF02210A
:1035B0004DF22250FCF753FFA4214DF22350FCF7AB
:1035C0004EFF02214DF22450FCF749FFB7214DF286
:1035D0002550FCF744FF02214DF22650FCF73FFF37
:1035E000CF214DF22750FCF73AFF02214DF228502F
:1035F000FCF735FFDE214DF22950FCF730FF0221A8
:103600004DF22A50FCF72BFFF2214DF22B50FCF724
:1036100026FF02214DF22C50FCF721FFFE214DF236
:103620002D50FCF71CFF03214DF22E50FCF717FF25
:1036300010214DF22F50FCF712FF03214DF23050B4
:10364000FCF70DFF33214DF23150FCF708FF032149
:103650004DF23250FCF703FF6D214DF23350FCF771
:10366000FEFE00214FF45640FCF7F9FE33214DF2E7
:103670000160FCF7F4FE00214DF20260FCF7EFFE62
:1036800034214DF20360FCF7EAFE00214DF20460A4
:10369000FCF7E5FE3A214DF20560FCF7E0FE002163
:1036A0004DF20660FCF7DBFE4A214DF20760FCF7A5
:1036B000D6FE00214DF20860FCF7D1FE5C214DF2F0
:1036C0000960FCF7CCFE00214DF20A60FCF7C7FE52
:1036D00081214DF20B60FCF7C2FE00214DF20C601F
:1036E000FCF7BDFEA6214DF20D60FCF7B8FE0021EF
:1036F0004DF20E60FCF7B3FEE5214DF20F60FCF7D2
:10370000AEFE01214DF21060FCF7A9FE13214DF22F
:103710001160FCF7A4FE01214DF21260FCF79FFE40
:1037200054214DF21360FCF79AFE01214DF2146012
:10373000FCF795FE82214DF21560FCF790FE012109
:103740004DF21660FCF78BFECA214DF21760FCF7B4
:1037500086FE02214DF21860FCF781FE00214DF239
:103760001960FCF77CFE02214DF21A60FCF777FE2F
:1037700001214DF21B60FCF772FE02214DF21C602C
:10378000FCF76DFE34214DF21D60FCF768FE02214E
:103790004DF21E60FCF763FE67214DF21F60FCF7DF
:1037A0005EFE02214DF22060FCF759FE84214DF2AD
:1037B0002160FCF754FE02214DF22260FCF74FFE1F
:1037C000A4214DF22360FCF74AFE02214DF2246051
:1037D000FCF745FEB7214DF22560FCF740FE0221C3
:1037E0004DF22660FCF73BFECF214DF22760FCF73F
:1037F00036FE02214DF22860FCF731FEDE214DF24B
:103800002960FCF72CFE02214DF22A60FCF727FE0E
:10381000F2214DF22B60FCF722FE02214DF22C60CA
:10382000FCF71DFEFE214DF22D60FCF718FE032172
:103830004DF22E60FCF713FE10214DF22F60FCF7C5
:103840000EFE03214DF23060FCF709FE33214DF2EC
:103850003160FCF704FE03214DF23260FCF7FFFDFE
:103860006D214DF23360FCF7FAFD55214FF47040A5
:10387000FCF7F5FDAA214FF20100FCF7F0FD522103
:103880004FF20200FCF7EBFD08214FF20300FCF7BA
:10389000E6FD00214FF20400FCF7E1FDCC214FF4DE
:1038A0003140FCF7DCFD00214BF20110FCF7D7FDA5
:1038B00005214FF43640FCF7D2FD70214FF437401C
:1038C000FCF7CDFD70214BF20170FCF7C8FD012122
:1038D0004FF43840FCF7C3FD03214BF60100FCF721
:1038E000BEFD03214BF60200FCF7B9FD03214BF6A8
:1038F0000300FCF7B4FD02214FF43C40FCF7AFFDA0
:1039000000214BF60140FCF7AAFD00214BF60240D6
:10391000FCF7A5FDD0214FF44940FCF7A0FD0221A2
:103920004CF60110FCF79BFD50214CF60210FCF701
:1039300096FD50214CF60310FCF791FD50214CF6FA
:103940000410FCF78CFD00214FF45450FCF787FD68
:1039500055214FF46850FCF782FD4FF48850FCF776
:103960006FFD782001F0C5FD4FF42450FCF768FD91
:1039700001F05EB9FE48808849F2253188427DD148
:1039800047F6F001E520FCF76AFD4FF48071012055
:10399000FCF765FD4FF4E0610220FCF760FD41F2A9
:1039A00030010320FCF75BFD00210420FCF757FDEC
:1039B00040F202210820FCF752FD00210920FCF70B
:1039C0004EFD00210A20FCF74AFD00210C20FCF7E7
:1039D00046FD00210D20FCF742FD00210F20FCF7E1
:1039E0003EFD00211020FCF73AFD07211120FCF7D5
:1039F00036FD00211220FCF732FD00211320FCF7D8
:103A00002EFD00210720FCF72AFD41F290611020D5
:103A1000FCF725FD40F227211120FCF720FD9D2118
:103A20001220FCF71CFD4FF4C8511320FCF717FDC2
:103A300025212920FCF713FD0D212B20FCF70FFD7C
:103A400007213020FCF70BFD40F203313120FCF759
:103A500006FD03213220FCF702FD40F2062135204D
:103A6000FCF7FDFC08213620FCF7F9FC40F206418A
:103A70003720FCF7F4FC4FF4417100E058E03820A7
:103A8000FCF7EDFC07213920FCF7E9FC40F202616C
:103A90003C20FCF7E4FC08213D20FCF7E0FC002181
:103AA0005020FCF7DCFCEF215120FCF7D8FC002172
:103AB0005220FCF7D4FC40F23F115320FCF7CFFC1E
:103AC0004FF427416020FCF7CAFC01216120FCF77C
:103AD000C6FC00216A20FCF7C2FC00218020FCF714
:103AE000BEFC00218120FCF7BAFC00218220FCF7FB
:103AF000B6FC00218320FCF7B2FC00218420FCF7F7
:103B0000AEFC00218520FCF7AAFC10219020FCF7D8
:103B1000A6FC4FF4C0619220FCF7A1FC40F23311E7
:103B20000720FCF79CFC22210020FCF798FC1FE7F3
:103B30008F48808849F2283188427DD141F28F0137
:103B4000EC20FCF78CFC41F23421EF20FCF787FCE1
:103B50004FF480710120FCF782FC4FF4E0610220F9
:103B6000FCF77DFC41F230010320FCF778FC0021DA
:103B70000420FCF774FC40F202210820FCF76FFCE3
:103B800000210920FCF76BFC00210A20FCF767FCF0
:103B900001210C20FCF763FC00210D20FCF75FFCE9
:103BA00000210F20FCF75BFC00211020FCF757FCE4
:103BB00007211120FCF753FC00211220FCF74FFCD9
:103BC00000211320FCF74BFC01210720FCF747FCE8
:103BD000322001F0B2FC41F290411020FCF73FFC92
:103BE00040F227211120FCF73AFC322001F0A5FC1D
:103BF0008A211220FCF733FC322001F09EFC4FF4A6
:103C0000D0511320FCF72BFC06212920FCF727FCC0
:103C10000D212B20FCF723FC322001F08EFC00212B
:103C20002020FCF71CFC00212120FCF718FC32208E
:103C300001F083FC002100E075E03020FCF70FFC70
:103C400040F204613120FCF70AFC40F205313220D9
:103C5000FCF705FC00213520FCF701FC40F609418A
:103C60003620FCF7FCFB4FF401713720FCF7F7FB23
:103C700040F201313820FCF7F2FB40F207713920A5
:103C8000FCF7EDFB00213C20FCF7E9FB40F60A21A4
:103C90003D20FCF7E4FB322001F04FFC00215020D6
:103CA000FCF7DDFBEF215120FCF7D9FB002152206E
:103CB000FCF7D5FB40F23F115320FCF7D0FB4FF44B
:103CC00027416020FCF7CBFB01216120FCF7C7FBFB
:103CD00000216A20FCF7C3FB00218020FCF7BFFB1A
:103CE00000218120FCF7BBFB00218220FCF7B7FB01
:103CF00000218320FCF7B3FB00218420FCF7AFFBFD
:103D000000218520FCF7ABFB10219020FCF7A7FBDE
:103D10004FF4C0619220FCF7A2FB40F23311072060
:103D2000FCF79DFB24E61248808849F22031884246
:103D30007ED100210846FCF792FB4FF480710120F0
:103D4000FCF78DFB4FF4E0610220FCF788FB41F2A9
:103D500030010320FCF783FB00210420FCF77FFBEC
:103D600040F202210820FCF77AFB0021092001E043
:103D700038000020FCF773FB00210A20FCF76FFBE2
:103D800001210C20FCF76BFB00210D20FCF767FBE9
:103D900000210F20FCF763FB322001F0CEFB40F244
:103DA00001110720FCF75BFB322001F0C6FB4FF44A
:103DB00086511020FCF753FB07211120FCF74FFB25
:103DC0004FF488711220FCF74AFB4FF43061132046
:103DD000FCF745FB00212920FCF741FB44F21001D0
:103DE0002B20FCF73CFB00215020FCF738FBEF2197
:103DF0005120FCF734FB00215220FCF730FB40F24D
:103E00003F115320FCF72BFB4FF41C516020FCF7B3
:103E100026FB01216120FCF722FB00216A20FCF730
:103E20001EFB00218020FCF71AFB0021812000E00E
:103E300030E0FCF714FB00218220FCF710FB00218E
:103E40008320FCF70CFB00218420FCF708FB0021F9
:103E50008520FCF704FB10219020FCF700FB0021DB
:103E60009220FCF7FCFA01219320FCF7F8FA4FF4BA
:103E700088719520FCF7F3FA00219720FCF7EFFA00
:103E800000219820FCF7EBFA40F273110720FCF7B1
:103E9000E6FA6DE5FE48808849F2313188427DD1ED
:103EA00041F21401E720FCF7DAFA4FF480710120A7
:103EB000FCF7D5FA4FF400710220FCF7D0FA41F27A
:103EC00038010320FCF7CBFA40F202210820FCF76E
:103ED000C6FA00210920FCF7C2FA00210A20FCF7EB
:103EE000BEFA00210C20FCF7BAFA00210D20FCF7E5
:103EF000B6FA00210F20FCF7B2FA00211020FCF7DF
:103F0000AEFA07211120FCF7AAFA00211220FCF7D3
:103F1000A6FA00211320FCF7A2FAC82001F00DFB3D
:103F200041F290611020FCF79AFA40F2272111200B
:103F3000FCF795FA322001F000FB0C211220FCF76F
:103F40008EFA322001F0F9FA4FF400611320FCF7E9
:103F500086FA11212920FCF782FA0B212B20FCF78D
:103F60007EFA322001F0E9FA00212020FCF777FAEE
:103F700040F23F112120FCF772FA00213020FCF7BB
:103F80006EFA4FF483713120FCF769FA0021322078
:103F9000FCF765FA4FF40171352000E064E0FCF7AE
:103FA0005EFA41F20A613620FCF759FA40F20771D5
:103FB0003720FCF754FA4FF483713820FCF74FFA9E
:103FC00040F207713920FCF74AFA40F202413C20E6
:103FD000FCF745FA40F60F413D20FCF740FA00217E
:103FE0005020FCF73CFAEF215120FCF738FA002171
:103FF0005220FCF734FA40F23F115320FCF72FFA1D
:104000004FF41C516020FCF72AFA01216120FCF7D3
:1040100026FA00216A20FCF722FA00218020FCF712
:104020001EFA00218120FCF71AFA00218220FCF7F9
:1040300016FA00218320FCF712FA00218420FCF7F5
:104040000EFA00218520FCF70AFA10219020FCF7D7
:1040500006FA4FF4C0619220FCF701FA40F23311E6
:104060000720FCF7FCF983E48948808845F2084181
:1040700088427DD14FF480710120FCF7F0F94FF4B4
:10408000E0610220FCF7EBF941F230010320FCF77C
:10409000E6F900210420FCF7E2F940F207210820AC
:1040A000FCF7DDF900210920FCF7D9F900210A20ED
:1040B000FCF7D5F900210C20FCF7D1F900210D20E7
:1040C000FCF7CDF900210F20FCF7C9F9142001F00D
:1040D00034FA41F2B0611020FCF7C1F9012111203E
:1040E000FCF7BDF901211720FCF7B9F94FF49C71D9
:1040F0001220FCF7B4F94FF400611320FCF7AFF97C
:1041000009212920FCF7ABF909212A20FCF7A7F99E
:104110000021A420FCF7A3F900215020FCF79FF90F
:10412000EF215120FCF79BF900215220FCF797F971
:1041300040F23F115320FCF792F94FF41C516020DC
:10414000FCF78DF901216120FCF789F900216A2033
:10415000FCF785F900218020FCF781F900218120FE
:10416000FCF77DF900218220FCF779F9002100E0BD
:1041700024E08320FCF773F900218420FCF76FF919
:1041800000218520FCF76BF913219020FCF767F9DB
:1041900000219220FCF763F903219320FCF75FF9DB
:1041A0004FF488719520FCF75AF940F273110720FB
:1041B000FCF755F9322001F0C0F9B8E434488088A2
:1041C00041F2055188427DD100210720FCF747F9D3
:1041D000322001F0B2F94FF48E711220FCF73FF952
:1041E0000121A420FCF73BF90F210820FCF737F947
:1041F00008210A20FCF733F908210D20FCF72FF9DC
:1042000040F207713020FCF72AF907213120FCF732
:1042100026F940F203613220FCF721F94FF4E06106
:104220003320FCF71CF940F202213420FCF717F987
:1042300002213520FCF713F941F60F713620FCF707
:104240000EF940F207713720FCF709F900213820F8
:10425000FCF705F900213920FCF701F940F207715C
:104260003A20FCF7FCF800213B20FCF7F8F8072186
:104270003C20FCF7F4F800213D20FCF7F0F8322058
:1042800001F05BF901210720FCF7E9F8012101E0C9
:10429000380000201720FCF7E2F8322001F04DF939
:1042A0004FF4BD511020FCF7DAF840F2172111202D
:1042B000FCF7D5F84FF48F711220FCF7D0F84FF4CB
:1042C000706100E098E01320FCF7C9F800212A2073
:1042D000FCF7C5F80A212920FCF7C1F84FF49F71BB
:1042E0001220FCF7BCF800215020FCF7B8F8EF21B1
:1042F0005120FCF7B4F800215220FCF7B0F840F24E
:104300003F115320FCF7ABF84FF41C516020FCF731
:10431000A6F801216120FCF7A2F800216A20FCF731
:104320009EF800218020FCF79AF800218120FCF7FC
:1043300096F800218220FCF792F800218320FCF7F8
:104340008EF800218420FCF78AF800218520FCF7F4
:1043500086F813219020FCF782F84FF440719220E8
:10436000FCF77DF805219320FCF779F800219520D2
:10437000FCF775F800219720FCF771F800219820D0
:10438000FCF76DF84FF480710120FCF768F84FF4EA
:10439000E0610220FCF763F841F238010320FCF7EA
:1043A0005EF800210420FCF75AF800210C20FCF7ED
:1043B00056F800210F20FCF752F800212020FCF7CE
:1043C0004EF800212120FCF74AF821210720FCF7B4
:1043D00046F8142001F0B1F861210720FCF73FF8FE
:1043E000142001F0AAF840F273110720FCF737F807
:1043F000142001F0A2F895E4FE4880884BF20551A4
:1044000088427CD100210846FCF729F800210846A3
:10441000FCF725F800210846FCF721F800210846A2
:10442000FCF71DF80121A420FCF719F8142001F075
:1044300084F84FF41C516020FCF711F840F202217F
:104440000820FCF70CF84FF405713020FCF707F852
:1044500043F215713120FCF702F840F2046132207A
:10446000FBF7FDFF40F616613320FBF7F8FF42F241
:1044700011213420FBF7F3FF4FF4A8513520FBF74F
:10448000EEFF48F207513620FBF7E9FF41F2074102
:104490003720FBF7E4FF41F203413820FBF7DFFF51
:1044A00020213920FBF7DBFF1A219020FBF7D7FFF3
:1044B00000211020FBF7D3FF07211120FBF7CFFFCE
:1044C00000211220FBF7CBFF00211320FBF7C7FFD1
:1044D000142001F032F84FF4E6611020FBF7BFFF23
:1044E00040F237111120FBF7BAFF142001F025F834
:1044F0004FF4DC711220FBF7B2FF142000E085E0DE
:1045000001F01BF84FF470611320FBF7A8FF802126
:104510002A20FBF7A4FF48212920FBF7A0FF142045
:1045200001F00BF84FF480710120FBF798FF4FF476
:10453000E0610220FBF793FF41F238010320FBF713
:104540008EFF40F202210820FBF789FF00210A209C
:10455000FBF785FF00210C20FBF781FF00210D20D8
:10456000FBF77DFF30210E20FBF779FF0021502063
:10457000FBF775FFEF215120FBF771FF002152205F
:10458000FBF76DFF40F23F115320FBF768FF4FF43C
:104590001C516020FBF763FF01216120FBF75FFFE7
:1045A00000216A20FBF75BFF11219020FBF757FFEA
:1045B0004FF4C0619220FBF752FF40F2024193207A
:1045C000FBF74DFF02219420FBF749FF142000F078
:1045D000B4FF01210720FBF742FF142000F0ADFFDC
:1045E00061210720FBF73BFF40F273110720FBF727
:1045F00036FF00212020FBF732FF00212120FBF7AE
:104600002EFF22210020FBF72AFF11E37948808842
:104610004CF2055188427CD100210846FBF71FFF70
:1046200000210846FBF71BFF142000F086FF002145
:104630000846FBF714FF00210846FBF710FF002196
:104640000846FBF70CFF00210846FBF708FF012195
:10465000A420FBF704FF142000F06FFF4FF41C515F
:104660006020FBF7FCFE40F606010820FBF7F7FE92
:1046700040F203713020FBF7F2FE01213120FBF7FD
:10468000EEFE04213220FBF7EAFE4FF48171332065
:10469000FBF7E5FE4FF440713420FBF7E0FE40F2FB
:1046A00003113520FBF7DBFE1F213620FBF7D7FE79
:1046B00040F203713720FBF7D2FE01213820FBF7CF
:1046C000CEFE04213920FBF7CAFE15219020FBF70E
:1046D000C6FE4FF482611020FBF7C1FE40F2472175
:1046E0001120FBF7BCFE4FF4DE711220FBF7B7FE82
:1046F0004FF460611320FBF7B2FE782000F01DFF3D
:104700004FF480710120FBF7AAFE4FF400710220E4
:1047100000E052E0FBF7A3FE41F230010320FBF77B
:104720009EFE08210A20FBF79AFE00210C20FBF7D1
:1047300096FE20210E20FBF792FE00210F20FBF7B2
:104740008EFE00212020FBF78AFE00212120FBF7AE
:1047500086FE3D212A20FBF782FE142000F0EDFEAC
:104760002D212920FBF77BFE00215020FBF777FE4F
:104770004DF2EF015120FBF772FE00215220FBF7B2
:104780006EFE40F23F115320FBF769FE00216120CD
:10479000FBF765FE00216A20FBF761FE4FF44071D4
:1047A0009220FBF75CFE05219320FBF758FE4FF4A7
:1047B00080710720FBF753FE3AE20E48808844F2EE
:1047C000315188427ED101210020FBF748FE0A20AA
:1047D00000F0B3FE41F228611020FBF740FE0E21ED
:1047E0001220FBF73CFE40F639211320FBF737FE81
:1047F0000A2001E03800002000F09FFE4021112037
:10480000FBF72DFE50211520FBF729FE0A2000F0B2
:1048100094FE1E211220FBF722FE0A2000F08DFEDE
:104820004FF4B1511020FBF71AFE42F63921132044
:10483000FBF715FE0A2000F080FE4FF48071012086
:10484000FBF70DFE4FF440710220FBF708FE41F22A
:1048500038010320FBF703FE40F202210820FBF79A
:10486000FEFD08210A20FBF7FAFD00213020FBF7AE
:10487000F6FD40F202413120FBF7F1FD4FF4837168
:104880003220FBF7ECFD40F203513320FBF7E7FD4C
:104890004FF482713420FBF7E2FD40F20131352004
:1048A000FBF7DDFD40F207713620FBF7D8FD40F243
:1048B00005313720FBF7D3FD4FF402713820FBF7A9
:1048C000CEFD00E03EE040F60B713920FBF7C7FD5E
:1048D00002214120FBF7C3FD4FF41C516020FBF780
:1048E000BEFD01216120FBF7BAFD4FF40471902059
:1048F000FBF7B5FD4FF485719220FBF7B0FD042165
:104900009320FBF7ACFD4FF48071A020FBF7A7FDCF
:1049100001210720FBF7A3FD21210720FBF79FFDC5
:1049200023210720FBF79BFD33210720FBF797FD91
:1049300040F233110720FBF792FD0021A020FBF786
:104940008EFD75E1FA48808844F2355188427CD169
:1049500030211520FBF783FD10219A20FBF77FFD06
:1049600020211120FBF77BFD43F228411020FBF7AB
:1049700076FD02211220FBF772FD41F2380113206F
:10498000FBF76DFD282000F0D8FD12210846FBF74B
:1049900066FD282000F0D1FD43F220411020FBF7F6
:1049A0005EFD43F238011320FBF759FD462000F06D
:1049B000C4FD00213020FBF752FD40F202413120BE
:1049C000FBF74DFD40F207313220FBF748FD4FF475
:1049D00041713320FBF743FD04213420FBF73FFDF9
:1049E00040F201413520FBF73AFD40F207713620D5
:1049F000FBF735FD40F205313720FBF730FD4FF472
:104A0000C2613820FBF72BFD4FF4C2613920FBF760
:104A100026FD4FF480710120FBF721FD4FF440711A
:104A20000220FBF71CFD41F230010320FBF717FDCC
:104A300040F608010820FBF712FD08210A20FBF7C9
:104A40000EFD4FF41C51602000E033E0FBF707FD42
:104A500001216120FBF703FD4FF49F719020FBF7CC
:104A6000FEFC4FF480719220FBF7F9FC4FF480714B
:104A70009320FBF7F4FC4FF44051A020FBF7EFFC30
:104A80001021A320FBF7EBFC01210720FBF7E7FC3B
:104A900021210720FBF7E3FC23210720FBF7DFFCA4
:104AA00033210720FBF7DBFC40F233110720FBF733
:104AB000D6FCBDE09E48808841F663118842F8D15B
:104AC000E220FBF7BDFC1D20FBF7BDFC0220FBF73D
:104AD000BAFC0420FBF7B7FC642000F00AFDE020DC
:104AE000FBF7AEFC0120FBF7AEFC0A2000F025FD31
:104AF000E020FBF7A5FC0320FBF7A5FC0C2000F051
:104B00001CFD0120FBF79CFC0A2000F016FDE620AE
:104B1000FBF796FC2F20FBF796FCFF20FBF793FC9E
:104B2000FF20FBF790FCB020FBF78AFC2020FBF76E
:104B30008AFC0020FBF787FC0320FBF784FC40F293
:104B40001F30FBF780FC0120FBF77DFC40F2DF10FB
:104B5000FBF779FC0020FBF776FCB420FBF770FC38
:104B60000420FBF770FC40F21F40FBF76CFC0020B8
:104B7000FBF769FC2E20FBF766FC0020FBF763FCCB
:104B80000020FBF760FC0020FBF75DFC0020FBF73A
:104B90005AFCB620FBF754FC0220FBF754FC4FF400
:104BA0000370FBF750FC0020FBF74DFC1720FBF7D0
:104BB0004AFC1520FBF747FC0020FBF744FC0020D3
:104BC000FBF741FCF020FBF73BFC0320FBF73BFC31
:104BD0002920FBF735FCD020FBF732FC0020FBF747
:104BE00032FCBE20FBF72CFC0520FBF72CFCFE2042
:104BF000FBF729FC0120FBF726FC0020FBF723FC38
:104C00000020FBF720FC0020FBF71DFCB820FBF781
:104C100017FC0320FBF717FC0120FBF714FCBA205C
:104C2000FBF70EFC0120FBF70EFC6420FCF7EAF812
:104C30000020FCF70FF94FF6FF70FCF71DFB1FB0CB
:104C400000BD2DE9FC4F05460E4617469846DDF897
:104C50002C90002001903648808846F60401884256
:104C600029D133488079012825D1AB4635463048D3
:104C70000088C01B401E86B247462D480088A0EB26
:104C80000B00401E1FFA80F80020294988712A2055
:104C900048812B20888143463A4631462846CDF844
:104CA0000090FFF7CEFF0120214988712B20488119
:104CB0002A2088811CE0781B401C80B20190344679
:104CC00014E021462846FBF7F7FBFBF7D8FB4FF033
:104CD000000A06E01748A0F800900AF101001FFA48
:104CE00080FA01988245F5DB601C84B24445E8DD1A
:104CF000BDE8FC8F2DE9F84F07460D4690469946D2
:104D0000DDF828B0A8EB0700401C1FFA80FAA9EBD9
:104D10000500401C80B20090002419E0281981B2DF
:104D20003846FBF7C9FBFBF7AAFB00260CE00000A6
:104D3000380000200008006C04FB0A603BF81000FB
:104D4000F7490880701C86B25645F5DB601C84B2BA
:104D500000988442E2DBBDE8F88F2DE9FF4F84B074
:104D600081468A460020039002900698A0EB090530
:104D70000798A0EB0A06CDF80490CDF800A0002D0E
:104D800001DD012705E00DB9002702E04FF0FF37F4
:104D90006D42002E02DD4FF0010806E016B94FF01B
:104DA000000802E04FF0FF387642B54201DD2C46A4
:104DB00000E034464FF0000B21E0009A91B2019AD6
:104DC00090B2FBF72BFF03982844039002983044DD
:104DD00002900398A04205DD0398001B0390019800
:104DE000384401900298A04205DD0298001B029011
:104DF0000098404400900BF101001FFA80FB601CFA
:104E00008345DADD08B0BDE8F08FF0B504460D4605
:104E100016461F462B46324629462046FFF79DFF81
:104E20003B46224629462046FFF797FF3B4632463F
:104E300039462046FFF791FF3B4632462946304629
:104E4000FFF78BFFF0BD2DE9F04306460F46904675
:104E5000002445460320A0EB48093CE07A1B91B2B0
:104E6000321990B2FBF7DAFE3A1B91B2721990B286
:104E7000FBF7D4FE3A1991B2721990B2FBF7CEFE4D
:104E80007A1991B2321990B2FBF7C8FE7A1991B231
:104E9000321B90B2FBF7C2FE3A1991B2721B90B26C
:104EA000FBF7BCFE7A1B91B2321B90B2FBF7B6FE49
:104EB0003A1B91B2721B90B2FBF7B0FE641CB9F1C1
:104EC000000F03DAA000801D814404E0601B800015
:104ED0000A3081446D1EAC42C0DDBDE8F0832DE98F
:104EE000F84F80460E4617461C46B3462046E31749
:104EF00004EB5373DB1021464FEAE47C04EB5C7C4B
:104F00004FEAEC0CA4EBCC0CBCF1000F02D04FF03C
:104F1000010C01E04FF0000C6344224604EBD27C0C
:104F20004FEA6C0C03FB0CF3DBB20093A7F12000FB
:104F3000C7B2002556E00C2C07D107EB4700794992
:104F400001EB800010F8059013E0102C05D1764895
:104F500000EB071010F805900BE0182C07D107EBB9
:104F6000C700724901EB800010F8059001E0BDE830
:104F7000F88F4FF0000A2FE009F0800030B16C4844
:104F8000028831464046FBF75DFE07E00A9828B9E3
:104F90006848028831464046FBF754FE4FEA4960B4
:104FA0004FEA1069701C86B263484088B04200DC4A
:104FB000DDE7A6EB0B00A0420AD15E4608F1010036
:104FC0001FFA80F85C480088404500DCCFE706E027
:104FD0000AF1010000F0FF0ABAF1080FCCDB00BFB4
:104FE000681CC5B200988542A5DB00BFBFE710B5BD
:104FF0000246012000E050430B1EA1F10104E1B282
:10500000F9D110BD2DE9FF4F81B0074691461E46EC
:105010000E9D4FF0000A002439E0301B401EC1B243
:105020000A20FFF7E4FFB9FBF0F00A21B0FBF1F230
:1050300001FB1208BAF1000F16D1701EA04213DD59
:10504000B8F1000F0ED10020AB4605EBDB71491023
:1050500001FB0471009088B22B4620220299FFF7D1
:105060003EFF12E04FF0010A0020AB4605EBDB717A
:10507000491001FB0471009088B208F13001CAB2F6
:105080002B460299FFF72BFF00BF601CC4B2B4424D
:10509000C3DB05B0BDE8F08F2DE9FF4F82B00646B7
:1050A00092461F46DDE90F480020019000255CE094
:1050B000781B401EC1B20A20FFF799FFBAFBF0F03F
:1050C0000A21B0FBF1F201FB12090198B0BB781E76
:1050D000A84236DDB9F1000F31D108F0800078B177
:1050E00008F00100A34604EBDB71491001FB0561E8
:1050F000009088B2234630220399FFF7F0FE0EE0BD
:1051000008F00100A34604EBDB71491001FB0561C7
:10511000009088B2234620220399FFF7E0FE22E0A8
:105120000008006C4E780008C27C0008B2820008BB
:1051300014000020160000203800002001E00120AB
:10514000019008F00100A34604EBDB71491001FB5C
:105150000561009088B209F13001CAB22346039973
:10516000FFF7BDFE00BF681CC5B2BD42A0DB06B0A4
:10517000BDE8F08F2DE9F84704460D469046994664
:10518000DDE9096704F0FF0A08EB04001FFA80F864
:1051900009EB05001FFA80F916E0444502DB54468E
:1051A000A81985B24D4500DB14E0002000903A7844
:1051B000334629462046FFF792FE304606EBD07173
:1051C00004EB61018CB27F1C38787E2802DC3878D1
:1051D0002028E2DA00BFBDE8F8872DE9F84105464E
:1051E0000F4616469846079C002E15DB00202346E6
:1051F0002B22394600902846FFF771FE204604EB2B
:10520000D07105EB61018DB24346324639462846DE
:105210000094FFF7F7FE14E0002023462D223946C4
:1052200000902846FFF75BFE204604EBD07105EBAB
:1052300061018DB243467242394628460094FFF719
:10524000E1FEBDE8F8812DE9FE4F05468A46164687
:105250001F46DDE90C840021304602F047FA4DD8A4
:10526000304602F00FF90290029802F02BF98146C5
:10527000314602F06CFA8346002023462B22514629
:1052800000902846FFF72BFE204604EBD07105EB7B
:1052900061018DB23B46009451462846029AFFF7C1
:1052A000B1FE204604EBD071491007FB01518DB2CD
:1052B000002023462E22514600902846FFF70FFE7D
:1052C000204604EBD07105EB61018DB24FF000096F
:1052D00006E04A49584602F03DF9834609F10109C2
:1052E000C145F6DB584602F0CDF8019043460094E4
:1052F00051462846019AFFF785FE4FE086F00046AA
:10530000304602F0BFF80290029802F0DBF88146C6
:10531000314602F01CFA8346002023462D225146D6
:1053200000902846FFF7DBFD204604EBD07105EB2B
:1053300061018DB23B46009451462846029AFFF720
:1053400061FE204604EBD071491007FB01518DB27C
:10535000002023462E22514600902846FFF7BFFD2D
:10536000204604EBD07105EB61018DB24FF00009CE
:1053700006E02249584602F0EDF8834609F101099A
:10538000C145F6DB584602F07DF801904346009493
:1053900051462846019AFFF735FE00BFBDE8FE8F53
:1053A0002DE9F84105460F4616469846079C002E03
:1053B00010DB002023462B22394600902846FFF7B9
:1053C0008EFD291988B24346324639460094FFF7CC
:1053D00019FE10E07642002023462D223946009027
:1053E0002846FFF77CFD291988B2434632463946E4
:1053F0000094FFF707FEBDE8F8810000000020419F
:1054000000B587B00121880201F014F801210420C1
:1054100001F010F84FF4004000F070FF00208DF80C
:105420001B000220ADF8180003208DF81A0006A911
:10543000214800F043FD0523012211461F4801F0D9
:1054400020FB0020019004904FF460200390002086
:105450008DF809008DF8080001208DF8140001A9CD
:10546000164801F076FA0121144801F09EFA13481B
:1054700001F0BDFA00BF114801F0BEFA0128FAD0D0
:105480000E4801F0C3FA00BF0C4801F0C4FA01282D
:10549000FAD007B000BD10B50121084801F0C5FAE7
:1054A00000BF0221054801F031FC0028F9D0034873
:1054B00001F04EFB10BD0000000801400028014033
:1054C00010B56FF0040000F074F92E4800682E4902
:1054D000B0FBF1F02D4908700846007800EB400160
:1054E000C1EBC0104FF6FF7101EAC00028490880E7
:1054F00010BD0146254A12784A434FF0E0235A6115
:1055000000229A611A46126942F001021A6100BF34
:105510004FF0E022106900F001021AB100F480326D
:10552000002AF5D04FF0E022126922F001024FF07C
:10553000E0231A6100229A6170470146144A1288DA
:105540004A434FF0E0235A6100229A611A461269D9
:1055500042F001021A6100BF4FF0E022106900F032
:1055600001021AB100F48032002AF5D04FF0E02297
:10557000126922F001024FF0E0231A6100229A61C1
:10558000704700000000002000127A001800002080
:105590001A00002000BF704700BF4A4A128802F07C
:1055A0004002002AF9D0C2B2464B1B1D1A80704738
:1055B00010B586B00446012144F2040000F03AFF21
:1055C0004FF40070ADF8140003208DF81600182079
:1055D0008DF8170005A93C4800F070FC4FF480607E
:1055E000ADF8140004208DF8170005A9364800F026
:1055F00065FC25208DF8000003208DF801008DF852
:10560000020001208DF80300684600F088F801943C
:105610000020ADF80800ADF80A00ADF80C00ADF8B8
:1056200010000C20ADF80E0001A9264800F0A9FFDB
:10563000012240F22551234801F03BF80121214885
:1056400001F02BF806B010BD10B540F225511D48F1
:1056500001F014F910B31B4801F090F8C4B21B48D4
:10566000008800F40040C8B91848008800F4804061
:1056700060B10A2C03D000201449088020E01348B0
:10568000008840F400401149088019E00D2C06D133
:105690000E48008840F480400C49088010E00B4818
:1056A0000088C0F30D000A490C5408480088401CCB
:1056B0000649088008460088C72801DD00200880C8
:1056C00010BD00000038014000080140200000200B
:1056D000460000200948804709480047FEE7FEE7EA
:1056E000FEE7FEE7FEE7FEE7FEE7FEE7FEE7FEE792
:1056F00004480549054A064B704700003F0300086F
:1057000031010008700100207007002070030020A4
:105710007003002031490143314A1160704770B570
:10572000002100230F22C47804B32D4C246804F414
:10573000E064C4F5E064210AC1F10403CA4044787E
:1057400004FA03F18478144021430901254C0678BA
:10575000A155047804F01F050124AC4005786D11B3
:10576000AD0005F1E025C5F8004109E0047804F03A
:105770001F050124AC401C4D0678761145F82640E3
:1057800070BD1A4A0A400243154B1B1F1A6070472E
:1057900039B1134A121D12680243114B1B1D1A60C6
:1057A00006E00F4A121D126882430D4B1B1D1A6042
:1057B0007047042808D14FF0E021096941F0040145
:1057C0004FF0E022116107E04FF0E021096921F07C
:1057D00004014FF0E0221161704700000000FA055B
:1057E0000CED00E000E400E080E100E080FFFF1F3E
:1057F00030B943F2DB028100A1F1C0410A6005E04B
:1058000043F2D2028100A1F1C0410A606FF0704200
:10581000411C8900A1F1C0410A608100A1F1C04191
:10582000C1F80421704710280AD118214FF02042F6
:105830001166402151664FF0FC319166D16610E04F
:105840001821F74A116040214FF02042C2F884101D
:105850004FF0FC31F24A083211604FF02042C2F89A
:105860008C1070471820EE4920310860002009068E
:10587000C1F8A4004FF0FC30E94928310860091D47
:105880000860091D08607047D0E901121143C26821
:105890001143026911434269114382691143C2698C
:1058A0001143026A1143426A1143826A1143C26A78
:1058B0001143026B114302689200A2F1C0421160D1
:1058C000816808290BD101688900A1F1C0410968EC
:1058D00041F0400201688900A1F1C0410A60416BBA
:1058E0000968426B526841EA0211426B926841EAD0
:1058F0000221426B928941EA0241426B128A41EADB
:105900000251426B127D41EA0261426B926911437E
:105910000268521C9200A2F1C0421160C16AB1F546
:10592000804F1BD1816B0968826B526841EA02117A
:10593000826B926841EA0221826B128A41EA02512B
:10594000826B127D41EA0261826B926911430268A7
:105950009200A2F1C042C2F8041107E06FF0704259
:1059600001688900A1F1C041C1F80421704730B538
:10597000002100220023446844F0080485682C4379
:10598000C5682C4305692C43456944EA452485696B
:1059900044EA4531C4692468C5696D6844EA052450
:1059A000C5692D8944EA0544C5692D7B44EA056231
:1059B000046A2468056A6D6844EA0524056A2D892D
:1059C00044EA0544056A2D7B44EA05630468102C0B
:1059D00005D14FF020442166A266E36608E0904CB2
:1059E00021604FF02044C4F888208D4C0C34236093
:1059F00030BD016841F01001426841EA42218268ED
:105A000041EA4231864A20321160C1680968C268A1
:105A1000526841EA0221C268128941EA0241C26821
:105A2000127B41EA02617E4A2832116001690968ED
:105A30000269526841EA02210269128941EA02417F
:105A40000269127B41EA0261754A2C321160416998
:105A500009684269526841EA02214269128941EAB1
:105A600002414269127B41EA02614FF02042C2F8D2
:105A7000B010704700210160022141600021816067
:105A8000C160016141618161C16101624FF4805176
:105A90004162490081620021C16201630F21426BB2
:105AA0001160426B5160FF21426B91600F21426B8C
:105AB000D160426B1161426B51610021426B916177
:105AC0000F21826B1160826B5160FF21826B9160AC
:105AD0000F21826BD160826B1161826B5161002159
