:020000040800F2
:1000000078080020D163000835060008370600088C
:100010003B0600083F0600084306000800000000F9
:10002000000000000000000000000000470600087B
:1000300049060008000000004B0600084D060008B5
:10004000EB630008EB630008EB630008EB63000858
:10005000EB630008EB630008EB630008EB63000848
:10006000EB630008EB630008EB630008EB63000838
:10007000EB630008EB630008EB630008EB63000828
:10008000EB630008EB630008EB630008EB63000818
:10009000EB630008EB630008EB630008075A0008F5
:1000A000EB630008EB630008EB630008EB630008F8
:1000B000EB630008AD5A0008CD5B0008EB63000855
:1000C000EB630008EB630008EB630008EB630008D8
:1000D000EB63000845630008EB630008EB6300086E
:1000E000EB630008EB630008EB630008EB630008B8
:1000F000EB630008EB630008EB630008EB630008A8
:10010000EB630008EB630008EB630008EB63000897
:10011000EB630008EB630008EB630008EB63000887
:10012000EB630008EB630008EB630008EB63000877
:1001300000F002F800F090F80AA090E8000C824469
:100140008344AAF10107DA4501D100F085F8AFF246
:10015000090EBAE80F0013F0010F18BFFB1A43F0A5
:100160000103184704C3000024C30000103A24BF51
:1001700078C878C1FAD8520724BF30C830C144BF0C
:1001800004680C607047000000230024002500264E
:10019000103A28BF78C1FBD8520728BF30C148BFEA
:1001A0000B6070476E2908F03686702908F0A18729
:1001B00066290AF0F68465290AF0F38467290AF0B3
:1001C000F08461290AF0EF8403681B0A28BF41F01C
:1001D0008001692908F03684642908F03384752980
:1001E00008F030846F2908F02E87782908F06D8791
:1001F000E92908F0C986E42908F0C686F52908F03F
:10020000C386EF2908F02B87F82908F06C8703686C
:10021000DB0928BF41F08001632908F03886732983
:1002200008F03D86E32909F07383F32909F0788308
:10023000002070471FB509F0C9FB04000020002111
:100240000AF0C2F8401C6060002000210AF0A6F805
:10025000E0601FBD10B510BD09F08AFB1146FFF725
:10026000E9FF00F009F809F067FC03B4FFF7F2FFBB
:1002700003BC06F00DF800001CB505F09FFF4FF41D
:10028000A06006F0C5F84FF4E13006F00FF800F07A
:10029000CFFA01F049FA05F0CDFB05F013FB05F0AC
:1002A000B5F94FF47840BA4908804FF6FF7001F075
:1002B00009FA3220B749086068E1B748006828B9F0
:1002C00005F0F4FC012801D1B349086005F045FBB5
:1002D000074638460AF010FB8046B0490AF02AFA71
:1002E0000646AF490AF01CFB05460AF0E5FA84B25F
:1002F000ACA010210B46E022CDE9001000210846F9
:1003000005F050F910200423224600210090AF2070
:1003100005F090F8A9A010210B468022CDE900102D
:100320001E21002005F03EF910200423009099487A
:100330001E210268782005F07DF8A4A010210B464C
:100340004022CDE900103C21002005F02BF9214688
:10035000A0A008F02BFB8F48006884420ADAA1A015
:1003600010210B464022CDE900103C21084605F043
:1003700019F909E09DA010210B464022CDE900109B
:100380003C21084605F00EF99AA010210B46802268
:10039000CDE900105A21002005F004F999480068C1
:1003A00001280AD198A010210B464022CDE9001067
:1003B0005A21782005F0F6F809E094A010210B46A8
:1003C0004022CDE900105A21782005F0EBF890A0EA
:1003D00010210B466022CDE900107821002005F0A5
:1003E000E1F8102000908E480423782102685F20F5
:1003F00005F020F8102000908948042378214268F5
:10040000822005F017F805F01FF9864908607D483D
:100410000068012816D108460068002812DD084649
:1004200000680A280EDA084600687D497E4A12688C
:1004300041F822007C480068401C7B49086002208B
:100440007A49086079480068022820D17548006818
:100450000E281CD174480068B0B1734800680128A8
:1004600004D16F4800684B4908600DE06E48006891
:10047000022809D16A4840686949096801EB81018D
:1004800000EB410043490860002067490860654867
:10049000006810284CD2DFE800F008090D1115198A
:1004A0001D2125292D313539404742E00120604981
:1004B00008603EE002205E4908603AE003205C49A3
:1004C000086036E004205A49086032E005205849A7
:1004D00008602EE00620564908602AE007205449AB
:1004E000086026E008205249086022E009205049AF
:1004F00008601EE00A204E4908601AE00B204C49B3
:10050000086016E00C204A49086012E001203D49CD
:1005100008600D20464908600BE00020394908605A
:100520000E204349086004E00F204149086000E0C4
:1005300000BF00BF3E48006811281BD2DFE800F072
:10054000090A0B0C0D0E0F101112131415161718A3
:10055000190010E00FE00EE00DE00CE00BE00AE007
:1005600009E008E007E006E005E004E003E002E05F
:1005700001E000E000BF00BF03E005F065F8294995
:100580000860284800680028F7D100BF95E6000001
:1005900054000020200000203C00002000F07F4597
:1005A0000000C842416C636F686F6C20436F6E63DC
:1005B000656E74726174696F6E3A00005472696797
:1005C00067657220506F696E743A000053746174ED
:1005D000653A0000BEC6BEABC5A8B6C8A3BA2564BE
:1005E0000D0A00004E6F726D616C00004455492089
:1005F0002020000052657365742054726967676536
:10060000723A000024000020596573004E4F20000C
:1006100054726967676572204E756D3A000000007C
:1006200034000020000000202C00002028000020C2
:1006300004000020704700BFFEE700BFFEE700BFD8
:10064000FEE700BFFEE77047704770477047000045
:100650000CB50020019000906C48006840F4803098
:100660006A49086000BF6948006800F400300090E3
:100670000198401C0190009818B90198B0F5A06F3E
:10068000F1D16248006800F4003010B10120009000
:1006900001E0002000900098012843D15C480068E8
:1006A00040F010005A4908600846006820F0030036
:1006B00008600846006840F002000860534840683F
:1006C000524948600846406848600846406840F41F
:1006D000806048600846406820F47C104860084606
:1006E000406840F4E81048600846006840F08070B8
:1006F000086000BF4548006800F000700028F9D08D
:100700004248406820F0030040494860084640687D
:1007100040F00200486000BF3C48406800F00C0018
:100720000828F9D10CBD10B5FFF792FF10BD10B528
:100730003648006840F001003449086008464068C7
:100740003449084031494860084600683249084049
:100750002E4908600846006820F48020086008469A
:10076000406820F4FE0048604FF41F008860FFF7E7
:10077000DAFF4FF000602949086010BD10B5002174
:1007800000200022214B5B6803F00C0121B10429F9
:1007900006D0082928D107E0214B224C236027E00E
:1007A0001F4B204C236023E0184B5B6803F4701050
:1007B000164B5B6803F48032022303EB904022B9AE
:1007C000194B4343174C23600DE0104B5B6803F457
:1007D000003323B1144B4343124C236003E0104B0E
:1007E0004343104C236003E00D4B0E4C236000BFCD
:1007F00000BF064B5B68C3F303130C4CE15C094B71
:100800001B68CB40074C236010BD00000010024065
:10081000002002400000FFF8FFFFF6FE08ED00E0B8
:1008200000127A004000002000093D004400002032
:1008300008B50121084606F07BFC0121042006F0E2
:1008400077FC1020ADF800008DF8030003208DF830
:10085000020069460B4806F0AFF901210A4806F08C
:100860007CFA0121042006F063FC1020ADF80000A2
:100870008DF8030003208DF802006946014806F058
:100880009BF908BD0008014000023000FE490880C5
:100890007047FD49891C0880704708B5FA48801CDC
:1008A00000880090BDF8000008BDF74A1080921C37
:1008B0001180704710B504462046FFF7E7FF05207A
:1008C00005F095FCFFF7E9FF10BDF0480089EE49FF
:1008D00008807047EC49891C0880704730B5014694
:1008E00001F01F04C1F34513CA0AE50205EB4315E5
:1008F0001544A8B230BD00BF011EA0F10102D0B264
:10090000FAD1704710B503460C46E048808849F29A
:100910004131884205D0DD48808845F21031884257
:1009200014D1DA494889FFF7B1FF1812FFF7B1FF78
:10093000D8B2FFF7AEFFD5498889FFF7A7FF20128D
:10094000FFF7A7FFE0B2FFF7A4FFE0E0CF48808801
:1009500046F6040188421DD1CC488079012804D193
:10096000CA480088401EC01A83B2C8494889FFF7A8
:100970008DFF1812FFF78DFFD8B2FFF78AFFC3492A
:100980008889FFF783FF2012FFF783FFE0B2FFF7AC
:1009900080FFBCE0BD48808841F66311884247D1A2
:1009A000BA488079A8B9B9480088401EC01A83B2F5
:1009B000B6494889FFF76AFF0020FFF76AFF002069
:1009C000FFF767FF1812FFF764FFD8B2FFF761FF68
:1009D00016E0AE494889FFF759FF1812FFF759FF93
:1009E000D8B2FFF756FFA9490988491EC1F30F2065
:1009F000FFF74FFFA5490978491EC8B2FFF749FF25
:100A0000A2498889FFF742FF2012FFF742FFE0B2B8
:100A1000FFF73FFF9D494988491EC1F30F20FFF7AB
:100A200038FF9A498978491EC8B2FFF732FF6EE055
:100A30009648808845F21051884220D193494889D0
:100A4000FFF724FF1812FFF724FF90494989491C3A
:100A500088B2FFF71BFFD8B2FFF71BFF8B498889CD
:100A6000FFF714FF2012FFF714FF88498989491CFA
:100A700088B2FFF70BFFE0B2FFF70BFF47E08348B8
:100A8000808849F2884188422ED180494889FFF701
:100A9000FDFE1812FFF7FDFED8B2FFF7FAFE7B4904
:100AA0000988491EC1F30F20FFF7F3FE7749097843
:100AB000491EC8B2FFF7EDFE74498889FFF7E6FECC
:100AC0002012FFF7E6FEE0B2FFF7E3FE6F49498828
:100AD000491EC1F30F20FFF7DCFE6C498978491EDF
:100AE000C8B2FFF7D6FE12E068488079012804D129
:100AF00066480088401EC01A83B264494889194676
:100B0000FFF7D3FE614988892146FFF7CEFE10BD6D
:100B10002DE9F04105460E4600240027A0465B481B
:100B20000088A84203DD59484088B04202DC00201A
:100B3000BDE8F08131462846FFF7E4FE534880883F
:100B400049F24131884217D05048808846F6040166
:100B5000884211D04D48808845F2103188420BD030
:100B60004A48808841F66311884205D0474880880A
:100B700049F28841884203D12E20FFF787FE0DE01D
:100B80004248808845F21051884204D14FF43850D1
:100B9000FFF77CFE02E02220FFF778FE3B488088CA
:100BA00049F22031884202D10220FFF7A4FEFFF76C
:100BB00074FE04463548808841F66311884201D1AD
:100BC0002046B5E70220FFF796FEFFF766FE0446D3
:100BD0002E48808849F24131884211D02B488088C4
:100BE00045F2103188420BD02848808845F21051D8
:100BF000884205D02548808849F2884188420AD138
:100C00000220FFF778FEFFF748FE8046E7B24FF676
:100C1000FF7000EA07271D48808849F22531884285
:100C200016D01A48808844F23551884210D01748AF
:100C30008088091F88420BD0144880884BF20551E8
:100C4000884205D0114880884CF20551884201D174
:100C500020466DE70D48808849F24131884211D025
:100C60000A48808845F2103188420BD007488088B6
:100C700045F21051884205D00448808849F28841E5
:100C800088420CD1E01203E0FE07006C80000020D7
:100C9000C002B91240EA411040EAE82048E7204685
:100CA000FFF71CFE44E700B5F648808849F2413161
:100CB000884217D0F348808846F60401884211D054
:100CC000F048808845F2103188420BD0ED4880888A
:100CD00041F66311884205D0EA48808849F288418C
:100CE000884203D12920FFF7D1FD0FE0E548808835
:100CF00045F21051884204D14FF42450FFF7C6FD4D
:100D000004E040F273110720FFF7CFFD00BD00B5EE
:100D1000DC48808849F24131884217D0D948808820
:100D200046F60401884211D0D648808845F2103139
:100D300088420BD0D348808841F66311884205D0A1
:100D4000D048808849F28841884203D12820FFF7A3
:100D50009DFD0EE0CB48808845F21051884204D1B9
:100D60004FF42050FFF792FD03E000210720FFF72A
:100D70009CFD00BD70B5044600230026C148807963
:100D800001280BD1BF48808846F60401884205D06F
:100D9000BC48808841F66311884208D1B9488079FF
:100DA000F0B9B848808841F66311884218D1082C00
:100DB00015D2DFE804F00406080A0C0E101206240F
:100DC0000DE007240BE0042409E0052407E00124DA
:100DD00005E0002403E0032401E0022400BF00BF7B
:100DE000A848808849F2413188421DD0A5488088B2
:100DF00046F60401884217D0A248808845F2103197
:100E0000884211D09F48808845F2105188420BD00B
:100E10009C48808841F66311884205D099488088B3
:100E200049F2884188427DD1082C1CD2DFE804F0C9
:100E30000406090C0F12151800BF14E043F08003DC
:100E400011E043F040030EE043F0C0030BE043F039
:100E5000200308E043F0600305E043F0A00302E054
:100E600043F0E00300BF00BF8648808845F2105180
:100E7000884202D14FF4585600E0362681488088D7
:100E800045F2103188420DD07E48808845F21051DD
:100E9000884207D07B48808841F66311884201D0A0
:100EA00043F008037748808846F60401884201D160
:100EB00043F0020319463046FFF7F7FC714880887B
:100EC00041F6631188421DD003F0200068B16D48DF
:100ED00000886C494988884214DA6A480588408845
:100EE00068490880084645800CE0664800886549E6
:100EF0004988884206DD6348058840886149088042
:100F0000084645805F48808845F21051884254D198
:100F10005C494889FFF7BAFC0020FFF7BAFC594941
:100F2000498900E078E0491C88B2FFF7AFFC002057
:100F3000FFF7AFFC53494989891C88B2FFF7A6FC2B
:100F400050490988491EC1F30F20FFF7A2FC4D4903
:100F50004989C91C88B2FFF799FC4A490978491E9A
:100F6000C8B2FFF796FC47498889FFF78FFC00203D
:100F7000FFF78FFC43498989491C88B2FFF786FC3B
:100F80000020FFF786FC3F498989891C88B2FFF75A
:100F90007DFC3C494988491EC1F30F20FFF779FCCD
:100FA00038498989C91C88B2FFF770FC35498978AE
:100FB000491EC8B2FFF76DFC55E032494889FFF77A
:100FC00065FC0020FFF765FC0020FFF762FC2D495F
:100FD0000988491EC1F30F20FFF75BFC29490978F6
:100FE000491EC8B2FFF755FC26498889FFF74EFC19
:100FF0000020FFF74EFC0020FFF74BFC21494988F9
:10100000491EC1F30F20FFF744FC1E498978491E91
:10101000C8B2FFF73EFC26E0082C1CD2DFE804F043
:1010200004070A0D0F12151843F0300313E043F0C4
:10103000100310E043F020030DE000BF0BE043F08D
:10104000380308E043F0280305E043F0180302E00A
:1010500043F0080300BF00BF032643F48053194642
:101060003046FFF722FC70BD30B504460D462946D8
:101070002046FFF747FCFFF728FC03480088034998
:10108000088030BD80000020540000200008006C63
:1010900030B503460C461546FE48808849F241317A
:1010A000884205D0FB48808845F21031884214D12F
:1010B000F8494889FFF7EAFB1812FFF7EAFBD8B2B4
:1010C000FFF7E7FBF3498889FFF7E0FB2012FFF702
:1010D000E0FBE0B2FFF7DDFBB3E0EE48808845F2CD
:1010E0001051884220D1EB494889FFF7CFFB1812F5
:1010F000FFF7CFFBE7494989491C88B2FFF7C6FBD8
:10110000D8B2FFF7C6FBE3498889FFF7BFFB20127F
:10111000FFF7BFFBDF498989491C88B2FFF7B6FB9F
:10112000E0B2FFF7B6FB8CE0DA48808841F6631145
:10113000884228D1D748807920B9D6480088401EF7
:10114000C01A83B2D3494889FFF7A0FB1812FFF7F2
:10115000A0FBD8B2FFF79DFB1812FFF79AFBD8B29D
:10116000FFF797FBCB498889FFF790FB2012FFF729
:1011700090FBE0B2FFF78DFB2012FFF78AFBE0B295
:10118000FFF787FB5DE0C348808846F6040188428C
:101190001DD1C0488079012804D1BE480088401E76
:1011A000C01A83B2BB494889FFF770FB1812FFF7DA
:1011B00070FBD8B2FFF76DFBB6498889FFF766FB75
:1011C0002012FFF766FBE0B2FFF763FB39E0B1489E
:1011D000808849F28841884220D1AE494889FFF78A
:1011E00055FB1812FFF755FBD8B2FFF752FB181248
:1011F000FFF74FFBD8B2FFF74CFBA6498889FFF7F2
:1012000045FB2012FFF745FBE0B2FFF742FB20123F
:10121000FFF73FFBE0B2FFF73CFB12E09D4880790F
:10122000012804D19B480088401EC01A83B2994906
:1012300048891946FFF739FB964988892146FFF707
:1012400034FB9448008994490880881C058030BD8F
:101250002DE9F0470446BE20FFF718FB0520FFF7F5
:1012600018FB204609F0F3F807464FF066328B4B27
:1012700009F000F9054609F0BDF81FFA80F9484663
:10128000FFF707FB0120FFF704FBFF20FFF701FB3F
:101290000020FFF7FEFA0020FFF7FBFABDE8F08719
:1012A00010B50446002C73D17A498871F02008806B
:1012B0004FF4A07048800846808849F24131884246
:1012C00011D07448808846F6040188420BD07148DA
:1012D000808845F21031884205D06E48808849F2F6
:1012E0008841884220D12C206A4908812A204881DF
:1012F0002B2088810846808846F6040188420BD05E
:101300006448808845F21031884205D06148808861
:1013100049F28841884206D14FF4A0705D490880A7
:101320004FF4F0704880B4E05A48808845F210517C
:10133000884210D14FF43050564908814FF428505C
:1013400048814FF42C5088814FF4F07008804FF49E
:10135000487048809DE04F48808841F6631188427C
:101360000DD12C204B4908812B2048812A208881CF
:101370004FF4F07008804FF44870488089E02220D4
:1013800044490881202048812120888181E0FFE7AD
:101390000120404988714FF4A0700880F0204880F7
:1013A0000846808849F2413188420BD0394880880C
:1013B00045F21031884205D03648808849F288418C
:1013C00088420DD12C20334908812A2048812B20C6
:1013D00088814FF4F07008804FF4A07048803FE09F
:1013E0002C48808846F60401884207D12C202949E0
:1013F00008812B2048812A20888131E02548808877
:1014000045F21051884210D14FF4305021490881E3
:101410004FF4285048814FF42C5088814FF4487085
:1014200008804FF4F07048801AE01A48808841F62E
:10143000631188420DD12C20164908812A20488149
:101440002B2088814FF4487008804FF4F07048805A
:1014500006E022200F490881212048812020888130
:101460000C48808846F6040188420BD009488088E1
:1014700045F21031884205D00648808849F28841FB
:10148000884206D14FF4F070024908804FF4A070F2
:10149000488005E080000020FE07006C666604407E
:1014A0000020FFF767FC10BD2DE9F04F86B0044621
:1014B0000D469046994604EB0800401E86B205EBA7
:1014C0000900401E87B2FE48808849F241318842B7
:1014D0001BD0FB48808845F21031884215D0F8486F
:1014E000808846F6040188420FD0F54880790128AB
:1014F00005D1F348808841F66311884205D0F04851
:10150000808849F28841884220D1ED494889FFF717
:10151000BDF92012FFF7BDF9E0B2FFF7BAF93012BA
:10152000FFF7B7F9F0B2FFF7B4F9E5498889FFF79B
:10153000ADF92812FFF7ADF9E8B2FFF7AAF93812B2
:10154000FFF7A7F9F8B2FFF7A4F9B8E0DC48808804
:1015500041F66311884234D1D9480088A0EB0800D5
:10156000001B84B205EB0900401E1FFA80F9D44924
:101570004889FFF78BF92012FFF78BF9E0B2FFF7EC
:1015800088F904EB0801491EC1F30F20FFF781F928
:1015900004EB0801491EC8B2FFF77BF9C8498889E6
:1015A000FFF774F92812FFF774F9E8B2FFF771F941
:1015B0004FEA2920FFF76DF909F0FF00FFF769F9FD
:1015C0007DE0BF48808845F21051884244D1BC4933
:1015D0004889FFF75BF92012FFF75BF9B8494989A1
:1015E000491C88B2FFF752F9E0B2FFF752F9B4494B
:1015F0004989891C88B2FFF749F93012FFF749F988
:10160000AF494989C91C88B2FFF740F9F0B2FFF72A
:1016100040F9AB498889FFF739F92812FFF739F902
:10162000A7498989491C88B2FFF730F9E8B2FFF76A
:1016300030F9A3498989891C88B2FFF727F9381244
:10164000FFF727F99E498989C91C88B2FFF71EF95F
:10165000F8B2FFF71EF932E09948807901280ED1DF
:10166000AA46BB4696480088801B401E80B2019067
:1016700093480088001B401E80B2009003E0A24601
:10168000B3460195009750200590512004905220B8
:1016900003905320029051460598FFF706F95946EA
:1016A0000498FFF702F901990398FFF7FEF80099F3
:1016B0000298FFF7FAF829462046FFF723F906B00B
:1016C000BDE8F08F70B5044600267D480588408847
:1016D00045437B48808846F60401884216D1784805
:1016E0008079012812D10020754988712A2048810B
:1016F0002B20888100210846FFF704F9012070495A
:1017000088712B2048812A20888103E00021084627
:10171000FFF7F8F8FFF7D9F8002602E069480480DF
:10172000761CAE42FAD370BD00B59FB0012108020D
:1017300005F0F1FC01214FF4F47005F0F9FC0420F0
:10174000ADF8780010208DF87B0003208DF87A002A
:101750001EA95D4805F030FA642004F06CFD0421F8
:10176000594805F0D8FA642004F065FD0421564874
:1017700005F0CFFA642004F05EFD0120ADF878009A
:1017800010208DF87B0003208DF87A001EA94F48A9
:1017900005F012FA01214D4805F0BBFA4CF2337006
:1017A000ADF8780018208DF87B0003208DF87A00C2
:1017B0001EA9474805F000FA4FF68070ADF8780092
:1017C00018208DF87B0003208DF87A001EA93E4872
:1017D00005F0F2F941F20100ADF8780018208DF81B
:1017E0007B0003208DF87A001EA93A4805F0E4F941
:1017F00001200890002009900F200A9000200B90F3
:101800000C900D900E900190029003200390002008
:10181000049005900690079006200F9000201090ED
:101820001190102012900020139015901490169093
:1018300017904FF480501890002019904FF480407A
:101840001A9000201B9008A81C9001A81D900FA8BA
:1018500004F098FE0121062004F0FCFF322004F081
:10186000EAFC49F288401649888008468088FF28AB
:101870000ADB084680884FF6FF71884204D0104882
:101880008088B0F5134F7DD1D320FEF7FFFFFFF71F
:1018900004F80B498880FFF700F809498880FEF7B3
:1018A000FCFF07498880084680884FF6FF7101EAEF
:1018B000002003498880FEF7F0FF014989880BE08A
:1018C000800000200008006C00180140000C01405E
:1018D00000140140002001400843FE49888008466A
:1018E000808849F2413188424CD0FA48808849F2D8
:1018F00088418842F8D0BF20FEF7C8FFFEF7CDFF31
:10190000F4498880FEF7C9FFF2498880FEF7C5FFD9
:10191000F0498880FEF7C1FFEE498880084680883C
:101920004FF6FF7101EA0020EA498880FEF7B5FF13
:10193000E84989880843E74988800846808846F650
:10194000040188427AD0D420FEF7A0FFFEF7A5FF5D
:10195000E0498880FEF7A1FFDE498880FEF79DFF01
:10196000DC498880084680884FF6FF7101EA002034
:10197000D8498880FEF791FFD64989880843D54920
:10198000888000E05AE00846808845F2103188429D
:1019900054D04FF45A40FEF779FFFEF77EFFCD4951
:1019A00088804FF45B40FEF771FFFEF776FFC94970
:1019B0008880084680884FF6FF7101EA0020C549FB
:1019C00088804FF45C40FEF761FFFEF766FFC14977
:1019D00089880843BF49888008468088B0F5004F51
:1019E00002D145F210508880BA48808845F21051E3
:1019F000884223D0A120FEF749FFFEF74EFFB549EC
:101A00008880FEF74AFFB3498880084680884FF6F1
:101A1000FF7101EA0020AF498880FEF73EFFAD4923
:101A200089880843AB4988800846808845F26171FF
:101A3000884203D141F66310A6498880A548808872
:101A400049F2413188427CD1CF20FEF71FFF0020B0
:101A5000FEF71FFFC120FEF71CFF3020FEF719FF25
:101A6000ED20FEF713FF6420FEF713FF0320FEF7BF
:101A700010FF1220FEF70DFF8120FEF70AFFE8207D
:101A8000FEF704FF8520FEF704FF1020FEF701FF9C
:101A90007A20FEF7FEFECB20FEF7F8FE3920FEF797
:101AA000F8FE2C20FEF7F5FE0020FEF7F2FE3420B3
:101AB000FEF7EFFE0220FEF7ECFEF720FEF7E6FE53
:101AC0002020FEF7E6FEEA20FEF7E0FE0020FEF70B
:101AD000E0FE0020FEF7DDFEC020FEF7D7FE1B2053
:101AE000FEF7D7FEC120FEF7D1FE0120FEF7D1FEA2
:101AF000C520FEF7CBFE3020FEF7CBFE3020FEF7F0
:101B0000C8FEC720FEF7C2FEB720FEF7C2FE362091
:101B1000FEF7BCFE4820FEF7BCFE3A20FEF7B6FEFC
:101B20005520FEF7B6FEB120FEF7B0FE0020FEF70E
:101B3000B0FE1A20FEF7ADFEB620FEF7A7FE0A2083
:101B400000E099E0FEF7A5FEA220FEF7A2FEF2203B
:101B5000FEF79CFE0020FEF79CFE2620FEF796FE78
:101B60000120FEF796FEE020FEF790FE0F20FEF724
:101B700090FE2A20FEF78DFE2820FEF78AFE082020
:101B8000FEF787FE0E20FEF784FE0820FEF781FE9A
:101B90005420FEF77EFEA920FEF77BFE4320FEF7D1
:101BA00078FE0A20FEF775FE0F20FEF772FE002079
:101BB000FEF76FFE0020FEF76CFE0020FEF769FEC8
:101BC0000020FEF766FEE120FEF760FE0020FEF733
:101BD00060FE1520FEF75DFE1720FEF75AFE072077
:101BE000FEF757FE1120FEF754FE0620FEF751FEC9
:101BF0002B20FEF74EFE5620FEF74BFE3C20FEF754
:101C000048FE0520FEF745FE1020FEF742FE0F209D
:101C1000FEF73FFE3F20FEF73CFE3F20FEF739FE79
:101C20000F20FEF736FE2B20FEF730FE0020FEF7D9
:101C300030FE0020FEF72DFE0120FEF72AFE3F2099
:101C4000FEF727FE2A20FEF721FE0020FEF721FEE8
:101C50000020FEF71EFE0020FEF71BFEEF20FEF721
:101C600018FE1120FEF712FE782004F0E4FA292075
:101C7000FEF70CFE03F0F5B91648808849F288415A
:101C800088427CD1F720FEF701FEA920FEF701FE75
:101C90005120FEF7FEFD2C20FEF7FBFD8220FEF713
:101CA000F8FDC020FEF7F2FD1120FEF7F2FD09203D
:101CB000FEF7EFFDC120FEF7E9FD4120FEF7E9FD4B
:101CC000C520FEF7E3FD0020FEF7E3FD0A20FEF746
:101CD000E0FD01E0800000208020FEF7DAFDB12069
:101CE000FEF7D4FDB020FEF7D4FD1120FEF7D1FDA4
:101CF000B420FEF7CBFD0220FEF7CBFDB620FEF7A9
:101D0000C5FD0220FEF7C5FD2220FEF7C2FDB7206B
:101D1000FEF7BCFDC620FEF7BCFDBE20FEF7B6FDFB
:101D20000020FEF7B6FD0420FEF7B3FDE920FEF724
:101D3000ADFD0020FEF7ADFD3620FEF7A7FD082023
:101D4000FEF7A7FD3A20FEF7A1FD5520FEF7A1FD05
:101D5000E020FEF79BFD0020FEF79BFD0720FEF72D
:101D600098FD1020FEF795FD0920FEF792FD172043
:101D7000FEF78FFD0B20FEF78CFD412000E053E0C5
:101D8000FEF787FD8920FEF784FD4B20FEF781FDDD
:101D90000A20FEF77EFD0C20FEF77BFD0E20FEF7ED
:101DA00078FD1820FEF775FD1B20FEF772FD0F2051
:101DB000FEF76FFDE120FEF769FD0020FEF769FDEB
:101DC0001720FEF766FD1A20FEF763FD0420FEF7DC
:101DD00060FD0E20FEF75DFD0620FEF75AFD2F2068
:101DE000FEF757FD4520FEF754FD4320FEF751FD59
:101DF0000220FEF74EFD0A20FEF74BFD0920FEF7FC
:101E000048FD3220FEF745FD3620FEF742FD0F204B
:101E1000FEF73FFD1120FEF739FD782004F00BFAA4
:101E20002920FEF733FD25E7FE48808846F60401A9
:101E300088427CD11120FEF729FD142004F0FBF923
:101E4000D020FEF723FD0720FEF723FD4220FEF7FA
:101E500020FD1D20FEF71DFDD120FEF717FD0020FF
:101E6000FEF717FD1A20FEF714FD0920FEF711FDFD
:101E7000D220FEF70BFD0120FEF70BFD2220FEF71E
:101E800008FDC020FEF702FD1020FEF702FD3B20FA
:101E9000FEF7FFFC0020FEF7FCFC0220FEF7F9FC39
:101EA0001120FEF7F6FCC520FEF7F0FC0320FEF73C
:101EB000F0FCC820FEF7EAFC0020FEF7EAFC252033
:101EC000FEF7E7FC2120FEF7E4FC0520FEF7E1FC2D
:101ED0000020FEF7DEFC0A20FEF7DBFC6520FEF7A3
:101EE000D8FC2520FEF7D5FC7720FEF7D2FC502049
:101EF000FEF7CFFC0F20FEF7CCFC0020FEF7C9FC5C
:101F0000F820FEF7C3FC0120FEF7C3FCFE20FEF71D
:101F1000BDFC0020FEF7BDFC0220FEF7BAFC20202D
:101F2000FEF7B4FC3620FEF7B1FC082000E02CE000
:101F3000FEF7AFFC3A20FEF7A9FC5520FEF7A9FCFE
:101F40002B20FEF7A3FC0020FEF7A3FC0020FEF7E9
:101F5000A0FC0120FEF79DFC3F20FEF79AFC2A2002
:101F6000FEF794FC0020FEF794FC0020FEF791FCA5
:101F70000120FEF78EFCDF20FEF78BFC782004F0BA
:101F80005AF92920FEF782FC74E6A648808845F2BB
:101F90001031884240F07C87ED20FEF777FC01206D
:101FA000FEF777FCFE20FEF774FCEE20FEF76EFCD9
:101FB000DE20FEF76EFC2120FEF76BFCF120FEF721
:101FC00065FC0120FEF765FCDF20FEF75FFC1020BA
:101FD000FEF75FFCC420FEF759FC8F20FEF759FC8A
:101FE000C620FEF753FC0020FEF753FCE220FEF76C
:101FF00050FCE220FEF74DFCE220FEF74AFCBF2039
:10200000FEF744FCAA20FEF744FCB020FEF73EFC9D
:102010000D20FEF73EFC0020FEF73BFC0D20FEF7F6
:1020200038FC0020FEF735FC1120FEF732FC0020C2
:10203000FEF72FFC1920FEF72CFC0020FEF729FCF0
:102040002120FEF726FC0020FEF723FC2D20FEF7C2
:1020500020FC0020FEF71DFC3D20FEF71AFC0020AE
:10206000FEF717FC5D20FEF714FC0020FEF711FCC4
:102070005D20FEF70EFC0020FEF70BFCB120FEF702
:1020800005FC8020FEF705FC0020FEF702FC8B20FB
:10209000FEF7FFFB0020FEF7FCFB9620FEF7F9FBA6
:1020A0000020FEF7F6FBB220FEF7F0FB0020FEF763
:1020B000F0FB0020FEF7EDFB0220FEF7EAFB00201C
:1020C000FEF7E7FB0320FEF7E4FB0020FEF7E1FB51
:1020D000B320FEF7DBFB0020FEF7DBFB0020FEF762
:1020E000D8FB0020FEF7D5FB0020FEF7D2FB002036
:1020F000FEF7CFFB0020FEF7CCFB0020FEF7C9FB6C
:102100000020FEF7C6FB0020FEF7C3FB0020FEF711
:10211000C0FB0020FEF7BDFB0020FEF7BAFB00204D
:10212000FEF7B7FB0020FEF7B4FB0020FEF7B1FB83
:102130000020FEF7AEFB0020FEF7ABFB0020FEF711
:10214000A8FB0020FEF7A5FB0020FEF7A2FB002065
:10215000FEF79FFB0020FEF79CFB0020FEF799FB9B
:102160000020FEF796FBB420FEF790FB8B20FEF7D5
:1021700090FB0020FEF78DFB9620FEF78AFB0020E7
:10218000FEF787FBA120FEF784FB0020FEF781FB12
:10219000B520FEF77BFB0220FEF77BFB0020FEF75D
:1021A00078FB0320FEF775FB0020FEF772FB04208E
:1021B000FEF76FFB0020FEF76CFBB620FEF766FB18
:1021C0000020FEF766FB0020FEF763FBB720FEF75A
:1021D0005DFB0020FEF75DFB0020FEF75AFB3F2071
:1021E000FEF757FB0020FEF754FB5E20FEF751FB85
:1021F0000020FEF74EFB6420FEF74BFB0020FEF7AD
:1022000048FB8C20FEF745FB0020FEF742FBAC208C
:10221000FEF73FFB0020FEF73CFBDC20FEF739FB1E
:10222000002001E080000020FEF733FB7020FEF765
:1022300030FB0020FEF72DFB9020FEF72AFB00204C
:10224000FEF727FBEB20FEF724FB0020FEF721FB27
:10225000DC20FEF71EFB0020FEF71BFBB820FEF77C
:1022600015FB0020FEF715FB0020FEF712FB0020F7
:10227000FEF70FFB0020FEF70CFB0020FEF709FB2A
:102280000020FEF706FB0020FEF703FB0020FEF710
:1022900000FBBA20FEF7FAFA2420FEF7FAFA002033
:1022A000FEF7F7FA0020FEF7F4FA0020FEF7F1FA45
:1022B000C120FEF7EBFA2020FEF7EBFA0020FEF734
:1022C000E8FA5420FEF7E5FA0020FEF7E2FAFF20D4
:1022D000FEF7DFFA0020FEF7DCFAC220FEF7D6FA9E
:1022E0000A20FEF7D6FA0020FEF7D3FA0420FEF704
:1022F000D0FA0020FEF7CDFAC320FEF7C7FA3C2043
:10230000FEF7C7FA0020FEF7C4FA3A20FEF7C1FA3A
:102310000020FEF7BEFA3920FEF7BBFA0020FEF7D8
:10232000B8FA3720FEF7B5FA0020FEF7B2FA3C20E3
:10233000FEF7AFFA0020FEF7ACFA3620FEF7A9FA56
:102340000020FEF7A6FA3220FEF7A3FA0020FEF7DF
:10235000A0FA2F20FEF79DFA0020FEF79AFA2C2013
:10236000FEF797FA0020FEF794FA2920FEF791FA7B
:102370000020FEF78EFA2620FEF78BFA0020FEF7EB
:1023800088FA2420FEF785FA0020FEF782FA24203E
:10239000FEF77FFA0020FEF77CFA2320FEF779FA99
:1023A0000020FEF776FA3C20FEF773FA0020FEF7D5
:1023B00070FA3620FEF76DFA0020FEF76AFA322036
:1023C000FEF767FA0020FEF764FA2F20FEF761FAA5
:1023D0000020FEF75EFA2C20FEF75BFA0020FEF7E5
:1023E00058FA2920FEF755FA0020FEF752FA262067
:1023F000FEF74FFA0020FEF74CFA2420FEF749FAC8
:102400000020FEF746FA2420FEF743FA0020FEF7EC
:1024100040FA2320FEF73DFA0020FEF73AFAC420E6
:10242000FEF734FA6220FEF734FA0020FEF731FAA4
:102430000520FEF72EFA0020FEF72BFA8420FEF787
:1024400028FA0020FEF725FAF020FEF722FA0020F5
:10245000FEF71FFA1820FEF71CFA0020FEF719FA03
:10246000A420FEF716FA0020FEF713FA1820FEF754
:1024700010FA0020FEF70DFA5020FEF70AFA0020AD
:10248000FEF707FA0C20FEF704FA0020FEF701FA27
:102490001720FEF7FEF90020FEF7FBF99520FEF766
:1024A000F8F90020FEF7F5F9F320FEF7F2F9002025
:1024B000FEF7EFF9E620FEF7ECF90020FEF7E9F968
:1024C000C520FEF7E3F93220FEF7E3F90020FEF71E
:1024D000E0F94420FEF7DDF90020FEF7DAF9652087
:1024E000FEF7D7F90020FEF7D4F97620FEF7D1F9F0
:1024F0000020FEF7CEF98820FEF7CBF90020FEF78A
:10250000C8F9C620FEF7C2F92020FEF7C2F9002064
:10251000FEF7BFF91720FEF7BCF90020FEF7B9F966
:102520000120FEF7B6F90020FEF7B3F9C720FEF749
:10253000ADF90020FEF7ADF90020FEF7AAF9002062
:10254000FEF7A7F90020FEF7A4F9C820FEF79EF9D0
:102550000020FEF79EF90020FEF79BF90020FEF711
:1025600098F90020FEF795F9C920FEF78FF90020B1
:10257000FEF78FF90020FEF78CF90020FEF789F9AD
:102580000020FEF786F90020FEF783F90020FEF711
:1025900080F90020FEF77DF90020FEF77AF900208F
:1025A000FEF777F90020FEF774F90020FEF771F9C5
:1025B0000020FEF76EF90020FEF76BF90020FEF711
:1025C00068F90020FEF765F90020FEF762F9E020C7
:1025D000FEF75CF91620FEF75CF90020FEF759F9CA
:1025E0001C20FEF756F90020FEF753F92120FEF7D4
:1025F00050F90020FEF74DF93620FEF74AF9002089
:10260000FEF747F94620FEF744F90020FEF741F9AE
:102610005220FEF73EF90020FEF73BF96420FEF75A
:1026200038F90020FEF735F97A20FEF732F900205C
:10263000FEF72FF98B20FEF72CF90020FEF729F981
:102640009920FEF726F90020FEF723F9A820FEF7CF
:1026500020F90020FEF71DF9B920FEF71AF9002035
:10266000FEF717F9C420FEF714F90020FEF711F960
:10267000CA20FEF70EF90020FEF70BF9D220FEF774
:1026800008F90020FEF705F9D920FEF702F900202D
:10269000FEF7FFF8E020FEF7FCF80020FEF7F9F85F
:1026A000F320FEF7F6F80020FEF7F3F8E120FEF73E
:1026B000EDF81620FEF7EDF80020FEF7EAF81C20F2
:1026C000FEF7E7F80020FEF7E4F82220FEF7E1F835
:1026D0000020FEF7DEF83620FEF7DBF80020FEF7DC
:1026E000D8F84520FEF7D5F80020FEF7D2F85220A2
:1026F000FEF7CFF80020FEF7CCF86420FEF7C9F80B
:102700000020FEF7C6F87A20FEF7C3F80020FEF797
:10271000C0F88B20FEF7BDF80020FEF7BAF899202C
:10272000FEF7B7F80020FEF7B4F8A820FEF7B1F8DE
:102730000020FEF7AEF8B920FEF7ABF80020FEF758
:10274000A8F8C420FEF7A5F80020FEF7A2F8CA20DA
:10275000FEF79FF80020FEF79CF8D220FEF799F8CC
:102760000020FEF796F8D820FEF793F80020FEF739
:1027700090F8E020FEF78DF80020FEF78AF8F320AD
:10278000FEF787F80020FEF784F8E220FEF77EF8D7
:102790000520FEF77EF80020FEF77BF80B20FEF701
:1027A00078F80020FEF775F81B20FEF772F800207D
:1027B000FEF76FF83420FEF76CF80020FEF769F89A
:1027C0004420FEF766F80020FEF763F84F20FEF77E
:1027D00060F80020FEF75DF86120FEF75AF800204F
:1027E000FEF757F87920FEF754F80020FEF751F86D
:1027F0008820FEF74EF80020FEF74BF89720FEF7F2
:1028000048F80020FEF745F8A620FEF742F8002021
:10281000FEF73FF8B720FEF73CF80020FEF739F846
:10282000C220FEF736F80020FEF733F8C720FEF787
:1028300030F80020FEF72DF8D120FEF72AF800200E
:10284000FEF727F8D620FEF724F80020FEF721F83F
:10285000DD20FEF71EF80020FEF71BF8F320FEF740
:1028600018F80020FEF715F8E320FEF70FF8052012
:10287000FEF70FF80020FEF70CF80A20FEF709F823
:102880000020FEF706F81C20FEF703F80020FEF7F4
:1028900000F83320FDF7FDFF0020FDF7FAFF44208C
:1028A000FDF7F7FF0020FDF7F4FF5020FDF7F1FFE3
:1028B0000020FDF7EEFF6220FDF7EBFF0020FDF7A3
:1028C000E8FF7820FDF7E5FF0020FDF7E2FF882014
:1028D000FDF7DFFF0020FDF7DCFF9720FDF7D9FFB4
:1028E0000020FDF7D6FFA620FDF7D3FF0020FDF75F
:1028F000D0FFB720FDF7CDFF0020FDF7CAFFC220B3
:10290000FDF7C7FF0020FDF7C4FFC720FDF7C1FF9B
:102910000020FDF7BEFFD120FDF7BBFF0020FDF733
:10292000B8FFD520FDF7B5FF0020FDF7B2FFDD2091
:10293000FDF7AFFF0020FDF7ACFFF320FDF7A9FF87
:102940000020FDF7A6FFE420FDF7A0FF0120FDF722
:10295000A0FF0020FDF79DFF0120FDF79AFF00205A
:10296000FDF797FF0220FDF794FF0020FDF791FF90
:102970002A20FDF78EFF0020FDF78BFF3C20FDF79E
:1029800088FF0020FDF785FF4B20FDF782FF002028
:10299000FDF77FFF5D20FDF77CFF0020FDF779FF4D
:1029A0007420FDF776FF0020FDF773FF8420FDF70C
:1029B00070FF0020FDF76DFF9320FDF76AFF0020F8
:1029C000FDF767FFA220FDF764FF0020FDF761FF20
:1029D000B320FDF75EFF0020FDF75BFFBE20FDF793
:1029E00058FF0020FDF755FFC420FDF752FF0020DF
:1029F000FDF74FFFCD20FDF74CFF0020FDF749FF0D
:102A0000D320FDF746FF0020FDF743FFDD20FDF753
:102A100040FF0020FDF73DFFF320FDF73AFF0020C7
:102A2000FDF737FFE520FDF731FF0020FDF731FF0F
:102A30000020FDF72EFF0020FDF72BFF0020FDF703
:102A400028FF0220FDF725FF0020FDF722FF2920A7
:102A5000FDF71FFF0020FDF71CFF3C20FDF719FFCD
:102A60000020FDF716FF4B20FDF713FF0020FDF7B8
:102A700010FF5D20FDF70DFF0020FDF70AFF742019
:102A8000FDF707FF0020FDF704FF8420FDF701FF9D
:102A90000020FDF7FEFE9320FDF7FBFE0020FDF772
:102AA000F8FEA220FDF7F5FE0020FDF7F2FEB320B0
:102AB000FDF7EFFE0020FDF7ECFEBE20FDF7E9FE7E
:102AC0000020FDF7E6FEC420FDF7E3FE0020FDF741
:102AD000E0FECD20FDF7DDFE0020FDF7DAFED3207D
:102AE000FDF7D7FE0020FDF7D4FEDC20FDF7D1FE78
:102AF0000020FDF7CEFEF320FDF7CBFE0020FDF712
:102B0000C8FEE620FDF7C2FE1120FDF7C2FE002040
:102B1000FDF7BFFE3420FDF7BCFE0020FDF7B9FE37
:102B20005620FDF7B6FE0020FDF7B3FE7620FDF738
:102B3000B0FE0020FDF7ADFE7720FDF7AAFE0020D5
:102B4000FDF7A7FE6620FDF7A4FE0020FDF7A1FE1D
:102B50008820FDF79EFE0020FDF79BFE9920FDF7E3
:102B600098FE0020FDF795FEBB20FDF792FE0020A9
:102B7000FDF78FFE9920FDF78CFE0020FDF789FE02
:102B80006620FDF786FE0020FDF783FE5520FDF749
:102B900080FE0020FDF77DFE5520FDF77AFE002027
:102BA000FDF777FE4520FDF774FE0020FDF771FE6E
:102BB0004320FDF76EFE0020FDF76BFE4420FDF77D
:102BC00068FE0020FDF765FEE720FDF75FFE32207E
:102BD000FDF75FFE0020FDF75CFE5520FDF759FE76
:102BE0000020FDF756FE7620FDF753FE0020FDF78E
:102BF00050FE6620FDF74DFE0020FDF74AFE6720DF
:102C0000FDF747FE0020FDF744FE6720FDF741FE7B
:102C10000020FDF73EFE8720FDF73BFE0020FDF77C
:102C200038FE9920FDF735FE0020FDF732FEBB206F
:102C3000FDF72FFE0020FDF72CFE9920FDF729FE61
:102C40000020FDF726FE7720FDF723FE0020FDF78C
:102C500020FE4420FDF71DFE0020FDF71AFE562041
:102C6000FDF717FE0020FDF714FE2320FDF711FEEF
:102C70000020FDF70EFE3320FDF70BFE0020FDF7D0
:102C800008FE4520FDF705FE0020FDF702FEE820C6
:102C9000FDF7FCFD0020FDF7FCFD0020FDF7F9FD30
:102CA0009920FDF7F6FD0020FDF7F3FD8720FDF7E5
:102CB000F0FD0020FDF7EDFD8820FDF7EAFD002086
:102CC000FDF7E7FD7720FDF7E4FD0020FDF7E1FDCE
:102CD0006620FDF7DEFD0020FDF7DBFD8820FDF717
:102CE000D8FD0020FDF7D5FDAA20FDF7D2FD00207C
:102CF000FDF7CFFDBB20FDF7CCFD0020FDF7C9FDA2
:102D00009920FDF7C6FD0020FDF7C3FD6620FDF705
:102D1000C0FD0020FDF7BDFD5520FDF7BAFD0020E8
:102D2000FDF7B7FD5520FDF7B4FD0020FDF7B1FD1F
:102D30004420FDF7AEFD0020FDF7ABFD4420FDF77C
:102D4000A8FD0020FDF7A5FD5520FDF7A2FD002000
:102D5000FDF79FFDE920FDF799FDAA20FDF799FDFC
:102D60000020FDF796FD0020FDF793FD0020FDF704
:102D700090FD0020FDF78AFDAA20FDF78AFDCF20F7
:102D8000FDF784FD0020FDF784FD0020FDF781FDA7
:102D90000020FDF77EFD0020FDF77BFD0020FDF704
:102DA00078FD0020FDF775FD0020FDF772FD002085
:102DB000FDF76FFD0020FDF76CFD0020FDF769FDBC
:102DC0000020FDF766FD0020FDF763FD0020FDF704
:102DD00060FD0020FDF75DFD0020FDF75AFD00209D
:102DE000FDF757FD0020FDF754FDF020FDF74EFDE7
:102DF0000020FDF74EFD5020FDF74BFD0020FDF7B4
:102E000048FD0020FDF745FD0020FDF742FDF320C1
:102E1000FDF73CFD0020FDF73CFDF920FDF736FDF8
:102E20000620FDF736FD1020FDF733FD2920FDF7C4
:102E300030FD0020FDF72DFD3A20FDF727FD552040
:102E4000FDF727FD1120FDF721FD642003F0F3F9C4
:102E50002920FDF71BFD3520FDF718FD0020FDF7AB
:102E600018FD5120FDF712FDFF20FDF712FD532044
:102E7000FDF70CFD2C20FDF70CFD5520FDF706FDA0
:102E80008220FDF706FD2C20FDF700FD02F0E9B8D9
:102E9000FE48808845F2105188427DD155214FF47B
:102EA0007040FDF702FDAA214FF20100FDF7FDFC85
:102EB00052214FF20200FDF7F8FC08214FF2030007
:102EC000FDF7F3FC01214FF20400FDF7EEFC0D21AC
:102ED0004FF43040FDF7E9FC0D214BF20100FDF706
:102EE000E4FC0D214BF20200FDF7DFFC34214FF42E
:102EF0003640FDF7DAFC34214BF20160FDF7D5FCDA
:102F000034214BF20260FDF7D0FC0D214FF431402B
:102F1000FDF7CBFC0D214BF20110FDF7C6FC0D2196
:102F20004BF20210FDF7C1FC34214FF43740FDF79E
:102F3000BCFC34214BF20170FDF7B7FC34214BF29D
:102F40000270FDF7B2FC00214FF43240FDF7ADFCFA
:102F500000214BF20120FDF7A8FC00214BF20220DA
:102F6000FDF7A3FC24214FF43840FDF79EFC2421FB
:102F70004BF60100FDF799FC24214BF60200FDF70A
:102F800094FC01214FF43F40FDF78FFC0F214FF4DB
:102F90003340FDF78AFC00E0FDE30F214BF20130E6
:102FA000FDF783FC0F214BF20230FDF77EFC34214C
:102FB0004FF43940FDF779FC34214BF60110FDF751
:102FC00074FC34214BF60210FDF76FFC08214FF41E
:102FD0003540FDF76AFC08214BF20150FDF765FC16
:102FE00008214BF20250FDF760FC03214FF44240F0
:102FF000FDF75BFC24214FF43A40FDF756FC2421F9
:103000004BF60120FDF751FC24214BF60220FDF781
:103010004CFC00214FF43C40FDF747FC78214BF677
:103020000140FDF742FC00214BF60240FDF73DFC5C
:1030300000214FF43D40FDF738FC78214BF601505C
:10304000FDF733FC00214BF60250FDF72EFC00216A
:103050004FF43E40FDF729FC64214BF60160FDF77B
:1030600024FC00214FF45140FDF71FFC33214DF2A9
:103070000110FDF71AFC00214DF20210FDF715FCBE
:1030800034214DF20310FDF710FC00214DF2041025
:10309000FDF70BFC3A214DF20510FDF706FC00216F
:1030A0004DF20610FDF701FC4A214DF20710FDF725
:1030B000FCFB00214DF20810FDF7F7FB5C214DF2FF
:1030C0000910FDF7F2FB00214DF20A10FDF7EDFBB0
:1030D00081214DF20B10FDF7E8FB00214DF20C10A1
:1030E000FDF7E3FBA6214DF20D10FDF7DEFB0021FD
:1030F0004DF20E10FDF7D9FBE5214DF20F10FDF753
:10310000D4FB01214DF21010FDF7CFFB13214DF23E
:103110001110FDF7CAFB01214DF21210FDF7C5FB9E
:1031200054214DF21310FDF7C0FB01214DF2141094
:10313000FDF7BBFB82214DF21510FDF7B6FB012117
:103140004DF21610FDF7B1FBCA214DF21710FDF735
:10315000ACFB02214DF21810FDF7A7FB00214DF248
:103160001910FDF7A2FB02214DF21A10FDF79DFB8D
:1031700001214DF21B10FDF798FB02214DF21C10AE
:10318000FDF793FB34214DF21D10FDF78EFB02215C
:103190004DF21E10FDF789FB67214DF21F10FDF760
:1031A00084FB02214DF22010FDF77FFB84214DF2BC
:1031B0002110FDF77AFB02214DF22210FDF775FB7D
:1031C000A4214DF22310FDF770FB02214DF22410D3
:1031D000FDF76BFBB7214DF22510FDF766FB0221D1
:1031E0004DF22610FDF761FBCF214DF22710FDF7C0
:1031F0005CFB02214DF22810FDF757FBDE214DF25A
:103200002910FDF752FB02214DF22A10FDF74DFB6C
:10321000F2214DF22B10FDF748FB02214DF22C104C
:10322000FDF743FBFE214DF22D10FDF73EFB032180
:103230004DF22E10FDF739FB10214DF22F10FDF746
:1032400034FB03214DF23010FDF72FFB33214DF2FB
:103250003110FDF72AFB03214DF23210FDF725FB5B
:103260006D214DF23310FDF720FB00214FF4524049
:10327000FDF71BFB33214DF20120FDF716FB00216A
:103280004DF20220FDF711FB342101E08000002007
:103290004DF20320FDF709FB00214DF20420FDF75C
:1032A00004FB3A214DF20520FDF7FFFA00214DF213
:1032B0000620FDF7FAFA4A214DF20720FDF7F5FA4C
:1032C00000214DF20820FDF7F0FA5C214DF20920B3
:1032D000FDF7EBFA00214DF20A20FDF7E6FA812115
:1032E0004DF20B20FDF7E1FA00214DF20C20FDF725
:1032F000DCFAA6214DF20D20FDF7D7FA00214DF2A0
:103300000E20FDF7D2FAE5214DF20F20FDF7CDFAA0
:1033100001214DF21020FDF7C8FA13214DF21120C2
:10332000FDF7C3FA01214DF21220FDF7BEFA542138
:103330004DF21320FDF7B9FA01214DF21420FDF7EB
:10334000B4FA82214DF21520FDF7AFFA01214DF2BA
:103350001620FDF7AAFACA214DF21720FDF7A5FAAB
:1033600002214DF21820FDF7A0FA00214DF219209C
:10337000FDF79BFA02214DF21A20FDF796FA012182
:103380004DF21B20FDF791FA02214DF21C20FDF7B2
:103390008CFA34214DF21D20FDF787FA02214DF2FF
:1033A0001E20FDF782FA67214DF21F20FDF77DFAFE
:1033B00002214DF22020FDF778FA84214DF22120E0
:1033C000FDF773FA02214DF22220FDF76EFAA421D7
:1033D0004DF22320FDF769FA02214DF22420FDF77A
:1033E00064FAB7214DF22520FDF75FFA02214DF274
:1033F0002620FDF75AFACF214DF22720FDF755FA86
:1034000002214DF22820FDF750FADE214DF229204D
:10341000FDF74BFA02214DF22A20FDF746FAF22180
:103420004DF22B20FDF741FA02214DF22C20FDF741
:103430003CFAFE214DF22D20FDF737FA03214DF223
:103440002E20FDF732FA10214DF22F20FDF72DFA34
:1034500003214DF23020FDF728FA33214DF23120BF
:10346000FDF723FA03214DF23220FDF71EFA6D21FC
:103470004DF23320FDF719FA00214FF45340FDF7C8
:1034800014FA33214DF20130FDF70FFA00214DF20D
:103490000230FDF70AFA34214DF20330FDF705FA48
:1034A00000214DF20430FDF700FA3A214DF20530CB
:1034B000FDF7FBF900214DF20630FDF7F6F94A2140
:1034C0004DF20730FDF7F1F900214DF20830FDF71C
:1034D000ECF95C214DF20930FDF7E7F900214DF2DE
:1034E0000A30FDF7E2F981214DF20B30FDF7DDF9ED
:1034F00000214DF20C30FDF7D8F9A6214DF20D3028
:10350000FDF7D3F900214DF20E30FDF7CEF9E5219C
:103510004DF20F30FDF7C9F901214DF21030FDF7E2
:10352000C4F913214DF21130FDF7BFF901214DF21D
:103530001230FDF7BAF954214DF21330FDF7B5F909
:1035400001214DF21430FDF7B0F982214DF2153012
:10355000FDF7ABF901214DF21630FDF7A6F9CA21AE
:103560004DF21730FDF7A1F902214DF21830FDF7A9
:103570009CF900214DF21930FDF797F902214DF227
:103580001A30FDF792F901214DF21B30FDF78DF94C
:1035900002214DF21C30FDF788F934214DF21D3027
:1035A000FDF783F902214DF21E30FDF77EF9672108
:1035B0004DF21F30FDF779F902214DF22030FDF771
:1035C00074F984214DF22130FDF76FF902214DF29B
:1035D0002230FDF76AF9A4214DF22330FDF765F999
:1035E00002214DF22430FDF760F9B7214DF225306C
:1035F000FDF75BF902214DF22630FDF756F9CF2198
:103600004DF22730FDF751F902214DF22830FDF738
:103610004CF9DE214DF22930FDF747F902214DF238
:103620002A30FDF742F9F2214DF22B30FDF73DF93A
:1036300002214DF22C30FDF738F9FE214DF22D30EC
:10364000FDF733F903214DF22E30FDF72EF910214D
:103650004DF22F30FDF729F903214DF23030FDF7FF
:1036600024F933214DF23130FDF71FF903214DF2DA
:103670003230FDF71AF96D214DF23330FDF715F9AF
:1036800000214FF45440FDF710F933214DF2014071
:10369000FDF70BF900214DF20240FDF706F9342148
:1036A0004DF20340FDF701F900214DF20440FDF712
:1036B000FCF83A214DF20540FDF7F7F800214DF2F4
:1036C0000640FDF7F2F84A214DF20740FDF7EDF80C
:1036D00000214DF20840FDF7E8F85C214DF2094069
:1036E000FDF7E3F800214DF20A40FDF7DEF88121F5
:1036F0004DF20B40FDF7D9F800214DF20C40FDF7DB
:10370000D4F8A6214DF20D40FDF7CFF800214DF27F
:103710000E40FDF7CAF8E5214DF20F40FDF7C5F860
:1037200001214DF21040FDF7C0F813214DF2114078
:10373000FDF7BBF801214DF21240FDF7B6F8542118
:103740004DF21340FDF7B1F801214DF21440FDF7A1
:10375000ACF882214DF21540FDF7A7F801214DF29A
:103760001640FDF7A2F8CA214DF21740FDF79DF86B
:1037700002214DF21840FDF798F800214DF2194052
:10378000FDF793F802214DF21A40FDF78EF8012162
:103790004DF21B4000E006E3FDF787F802214DF2F1
:1037A0001C40FDF782F834214DF21D40FDF77DF8F5
:1037B00002214DF21E40FDF778F867214DF21F40BF
:1037C000FDF773F802214DF22040FDF76EF88421D9
:1037D0004DF22140FDF769F802214DF22240FDF73C
:1037E00064F8A4214DF22340FDF75FF802214DF269
:1037F0002440FDF75AF8B7214DF22540FDF755F862
:1038000002214DF22640FDF750F8CF214DF227401E
:10381000FDF74BF802214DF22840FDF746F8DE2176
:103820004DF22940FDF741F802214DF22A40FDF703
:103830003CF8F2214DF22B40FDF737F802214DF212
:103840002C40FDF732F8FE214DF22D40FDF72DF80A
:1038500003214DF22E40FDF728F810214DF22F40A4
:10386000FDF723F803214DF23040FDF71EF8332118
:103870004DF23140FDF719F803214DF23240FDF7CA
:1038800014F86D214DF23340FDF70FF800214FF48D
:103890005540FDF70AF833214DF20150FDF705F8C8
:1038A00000214DF20250FDF700F834214DF2035093
:1038B000FCF7FBFF00214DF20450FCF7F6FF3A2124
:1038C0004DF20550FCF7F1FF00214DF20650FCF7D8
:1038D000ECFF4A214DF20750FCF7E7FF00214DF2C3
:1038E0000850FCF7E2FF5C214DF20950FCF7DDFFC8
:1038F00000214DF20A50FCF7D8FF81214DF20B5008
:10390000FCF7D3FF00214DF20C50FCF7CEFFA621AF
:103910004DF20D50FCF7C9FF00214DF20E50FCF79F
:10392000C4FFE5214DF20F50FCF7BFFF01214DF21E
:103930001050FCF7BAFF13214DF21150FCF7B5FF00
:1039400001214DF21250FCF7B0FF54214DF21350FB
:10395000FCF7ABFF01214DF21450FCF7A6FF8221CA
:103960004DF21550FCF7A1FF01214DF21650FCF766
:103970009CFFCA214DF21750FCF797FF02214DF230
:103980001850FCF792FF00214DF21950FCF78DFF03
:1039900002214DF21A50FCF788FF01214DF21B5015
:1039A000FCF783FF02214DF21C50FCF77EFF34210F
:1039B0004DF21D50FCF779FF02214DF21E50FCF72D
:1039C00074FF67214DF21F50FCF76FFF02214DF28B
:1039D0002050FCF76AFF84214DF22150FCF765FF6F
:1039E00002214DF22250FCF760FFA4214DF223503A
:1039F000FCF75BFF02214DF22450FCF756FFB72184
:103A00004DF22550FCF751FF02214DF22650FCF7F4
:103A10004CFFCF214DF22750FCF747FF02214DF21A
:103A20002850FCF742FFDE214DF22950FCF73DFF04
:103A300002214DF22A50FCF738FFF2214DF22B50B3
:103A4000FCF733FF02214DF22C50FCF72EFFFE2134
:103A50004DF22D50FCF729FF03214DF22E50FCF7BB
:103A600024FF10214DF22F50FCF71FFF03214DF2D0
:103A70003050FCF71AFF33214DF23150FCF715FF9F
:103A800003214DF23250FCF710FF6D214DF23350FF
:103A9000FCF70BFF00214FF45640FCF706FF3321E3
:103AA0004DF20160FCF701FF00214DF20260FCF7CE
:103AB000FCFE34214DF20360FCF7F7FE00214DF2CD
:103AC0000460FCF7F2FE3A214DF20560FCF7EDFED2
:103AD00000214DF20660FCF7E8FE4A214DF2076036
:103AE000FCF7E3FE00214DF20860FCF7DEFE5C21EE
:103AF0004DF20960FCF7D9FE00214DF20A60FCF797
:103B0000D4FE81214DF20B60FCF7CFFE00214DF277
:103B10000C60FCF7CAFEA6214DF20D60FCF7C5FE55
:103B200000214DF20E60FCF7C0FEE5214DF20F6062
:103B3000FCF7BBFE01214DF21060FCF7B6FE13212D
:103B40004DF21160FCF7B1FE01214DF21260FCF75D
:103B5000ACFE54214DF21360FCF7A7FE01214DF29B
:103B60001460FCF7A2FE82214DF21560FCF79DFE69
:103B700001214DF21660FCF798FECA214DF2176044
:103B8000FCF793FE02214DF21860FCF78EFE002137
:103B90004DF21960FCF789FE02214DF21A60FCF724
:103BA00084FE01214DF21B60FCF77FFE02214DF2E5
:103BB0001C60FCF77AFE34214DF21D60FCF775FEA7
:103BC00002214DF21E60FCF770FE67214DF21F606E
:103BD000FCF76BFE02214DF22060FCF766FE8421AB
:103BE0004DF22160FCF761FE02214DF22260FCF7EC
:103BF0005CFEA4214DF22360FCF757FE02214DF23A
:103C00002460FCF752FEB7214DF22560FCF74DFE13
:103C100002214DF22660FCF748FECF214DF22760CD
:103C2000FCF743FE02214DF22860FCF73EFEDE2148
:103C30004DF22960FCF739FE02214DF22A60FCF7B3
:103C400034FEF2214DF22B60FCF72FFE02214DF2E3
:103C50002C60FCF72AFEFE214DF22D60FCF725FEBC
:103C600003214DF22E60FCF720FE10214DF22F6053
:103C7000FCF71BFE03214DF23060FCF716FE3321EA
:103C80004DF23160FCF711FE03214DF23260FCF77A
:103C90000CFE6D214DF23360FCF707FE55214FF409
:103CA0007040FCF702FEAA214FF20100FCF7FDFD77
:103CB00052214FF20200FCF7F8FD08214FF20300F9
:103CC000FCF7F3FD00214FF20400FCF7EEFDCC21E0
:103CD0004FF43140FCF7E9FD00214BF20110FCF7F5
:103CE000E4FD05214FF43640FCF7DFFD70214FF471
:103CF0003740FCF7DAFD70214BF20170FCF7D5FD7F
:103D000001214FF43840FCF7D0FD03214BF60100B0
:103D1000FCF7CBFD03214BF60200FCF7C6FD0321A7
:103D20004BF60300FCF7C1FD02214FF43C40FCF7C9
:103D3000BCFD00214BF60140FCF7B7FD00214BF61E
:103D40000240FCF7B2FDD0214FF44940FCF7ADFD35
:103D500002214CF60110FCF7A8FD50214CF6021090
:103D6000FCF7A3FD50214CF60310FCF79EFD5021FB
:103D70004CF60410FCF799FD00214FF45450FCF769
:103D800094FD55214FF46850FCF78FFD4FF4885097
:103D9000FCF77CFD782002F02AFA4FF42450FCF75F
:103DA00075FD01F05EB9FE48808849F225318842F0
:103DB0007ED147F6F001E520FCF777FD4FF48071E6
:103DC0000120FCF772FD4FF4E0610220FCF76DFD6D
:103DD00041F230010320FCF768FD00210420FCF7CC
:103DE00064FD40F202210820FCF75FFD002109205C
:103DF000FCF75BFD00210A20FCF757FD00210C2099
:103E0000FCF753FD00210D20FCF74FFD00210F2092
:103E1000FCF74BFD00211020FCF747FD0721112086
:103E2000FCF743FD00211220FCF73FFD0021132089
:103E3000FCF73BFD00210720FCF737FD41F29061C4
:103E40001020FCF732FD40F227211120FCF72DFD58
:103E50009D211220FCF729FD4FF4C8511320FCF7D7
:103E600024FD25212920FCF720FD0D212B20FCF726
:103E70001CFD07213020FCF718FD40F203313120F2
:103E8000FCF713FD03213220FCF70FFD40F2062161
:103E90003520FCF70AFD08213620FCF706FD40F22C
:103EA00006413720FCF701FD4FF44171382000E056
:103EB00057E0FCF7FAFC07213920FCF7F6FC40F24A
:103EC00002613C20FCF7F1FC08213D20FCF7EDFCF1
:103ED00000215020FCF7E9FCEF215120FCF7E5FC24
:103EE00000215220FCF7E1FC40F23F115320FCF787
:103EF000DCFC4FF427416020FCF7D7FC0121612056
:103F0000FCF7D3FC00216A20FCF7CFFC00218020C5
:103F1000FCF7CBFC00218120FCF7C7FC00218220AC
:103F2000FCF7C3FC00218320FCF7BFFC00218420A8
:103F3000FCF7BBFC00218520FCF7B7FC102190208A
:103F4000FCF7B3FC4FF4C0619220FCF7AEFC40F2EA
:103F500033110720FCF7A9FC22210020FCF7A5FC67
:103F60001FE78F48808849F2283188427ED141F28C
:103F70008F01EC20FCF799FC41F23421EF20FCF793
:103F800094FC4FF480710120FCF78FFC4FF4E0614A
:103F90000220FCF78AFC41F230010320FCF785FC8B
:103FA00000210420FCF781FC40F202210820FCF7EC
:103FB0007CFC00210920FCF778FC00210A20FCF79A
:103FC00074FC01210C20FCF770FC00210D20FCF793
:103FD0006CFC00210F20FCF768FC00211020FCF78E
:103FE00064FC07211120FCF760FC00211220FCF783
:103FF0005CFC00211320FCF758FC01210720FCF792
:1040000054FC322002F017F941F290411020FCF7E5
:104010004CFC40F227211120FCF747FC322002F033
:104020000AF98A211220FCF740FC322002F003F941
:104030004FF4D0511320FCF738FC06212920FCF75F
:1040400034FC0D212B20FCF730FC322002F0F3F879
:1040500000212020FCF729FC00212120FCF725FC71
:10406000322002F0E8F80021302000E074E0FCF794
:104070001CFC40F204613120FCF717FC40F20531D2
:104080003220FCF712FC00213520FCF70EFC40F634
:1040900009413620FCF709FC4FF401713720FCF789
:1040A00004FC40F201313820FCF7FFFB40F20771BD
:1040B0003920FCF7FAFB00213C20FCF7F6FB40F628
:1040C0000A213D20FCF7F1FB322002F0B4F8002178
:1040D0005020FCF7EAFBEF215120FCF7E6FB002122
:1040E0005220FCF7E2FB40F23F115320FCF7DDFBCE
:1040F0004FF427416020FCF7D8FB01216120FCF739
:10410000D4FB00216A20FCF7D0FB00218020FCF7C3
:10411000CCFB00218120FCF7C8FB00218220FCF7AA
:10412000C4FB00218320FCF7C0FB00218420FCF7A6
:10413000BCFB00218520FCF7B8FB10219020FCF788
:10414000B4FB4FF4C0619220FCF7AFFB40F2331197
:104150000720FCF7AAFB24E61148808849F22031A9
:1041600088427DD100210846FCF79FFB4FF4807107
:104170000120FCF79AFB4FF4E0610220FCF795FB6D
:1041800041F230010320FCF790FB00210420FCF7F2
:104190008CFB40F202210820FCF787FB002101E0A4
:1041A000800000200920FCF780FB00210A20FCF79A
:1041B0007CFB01210C20FCF778FB00210D20FCF793
:1041C00074FB00210F20FCF770FB322002F033F863
:1041D00040F201110720FCF768FB322002F02BF8B7
:1041E0004FF486511020FCF760FB07211120FCF7EB
:1041F0005CFB4FF488711220FCF757FB4FF43061E1
:104200001320FCF752FB00212920FCF74EFB44F25F
:1042100010012B20FCF749FB00215020FCF745FB47
:10422000EF215120FCF741FB00215220FCF73DFB20
:1042300040F23F115320FCF738FB4FF41C51602033
:10424000FCF733FB01216120FCF72FFB00216A20E2
:10425000FCF72BFB00218020FCF727FB002100E06E
:1042600031E08120FCF721FB00218220FCF71DFBBF
:1042700000218320FCF719FB00218420FCF715FBAB
:1042800000218520FCF711FB10219020FCF70DFB8D
:1042900000219220FCF709FB01219320FCF705FB8C
:1042A0004FF488719520FCF700FB00219720FCF764
:1042B000FCFA00219820FCF7F8FA40F2731107206D
:1042C000FCF7F3FA6DE5FE48808849F23131884207
:1042D0007DD141F21401E720FCF7E7FA4FF4807139
:1042E0000120FCF7E2FA4FF400710220FCF7DDFA3E
:1042F00041F238010320FCF7D8FA40F202210820ED
:10430000FCF7D3FA00210920FCF7CFFA00210A209C
:10431000FCF7CBFA00210C20FCF7C7FA00210D2096
:10432000FCF7C3FA00210F20FCF7BFFA0021102090
:10433000FCF7BBFA07211120FCF7B7FA0021122085
:10434000FCF7B3FA00211320FCF7AFFAC82001F004
:1043500072FF41F290611020FCF7A7FA40F227218A
:104360001120FCF7A2FA322001F065FF0C21122087
:10437000FCF79BFA322001F05EFF4FF4006113203E
:10438000FCF793FA11212920FCF78FFA0B212B203F
:10439000FCF78BFA322001F04EFF00212020FCF7C1
:1043A00084FA40F23F112120FCF77FFA00213020EF
:1043B000FCF77BFA4FF483713120FCF776FA002189
:1043C0003220FCF772FA4FF40171352000E064E00E
:1043D000FCF76BFA41F20A613620FCF766FA40F20C
:1043E00007713720FCF761FA4FF483713820FCF72E
:1043F0005CFA40F207713920FCF757FA40F20241AB
:104400003C20FCF752FA40F60F413D20FCF74DFAF4
:1044100000215020FCF749FAEF215120FCF745FA22
:1044200000215220FCF741FA40F23F115320FCF7E3
:104430003CFA4FF41C516020FCF737FA012161204F
:10444000FCF733FA00216A20FCF72FFA00218020C4
:10445000FCF72BFA00218120FCF727FA00218220AB
:10446000FCF723FA00218320FCF71FFA00218420A7
:10447000FCF71BFA00218520FCF717FA1021902089
:10448000FCF713FA4FF4C0619220FCF70EFA40F2E9
:1044900033110720FCF709FA83E48948808845F244
:1044A000084188427ED14FF480710120FCF7FDF96C
:1044B0004FF4E0610220FCF7F8F941F230010320EB
:1044C000FCF7F3F900210420FCF7EFF940F2072193
:1044D0000820FCF7EAF900210920FCF7E6F90021A1
:1044E0000A20FCF7E2F900210C20FCF7DEF900219C
:1044F0000D20FCF7DAF900210F20FCF7D6F9142083
:1045000001F099FE41F2B0611020FCF7CEF90121D3
:104510001120FCF7CAF901211720FCF7C6F94FF466
:104520009C711220FCF7C1F94FF400611320FCF7D5
:10453000BCF909212920FCF7B8F909212A20FCF748
:10454000B4F90021A420FCF7B0F900215020FCF7B9
:10455000ACF9EF215120FCF7A8F900215220FCF71B
:10456000A4F940F23F115320FCF79FF94FF41C517E
:104570006020FCF79AF901216120FCF796F90021EF
:104580006A20FCF792F900218020FCF78EF90021C7
:104590008120FCF78AF900218220FCF786F90021AE
:1045A000832000E023E0FCF780F900218420FCF761
:1045B0007CF900218520FCF778F913219020FCF785
:1045C00074F900219220FCF770F903219320FCF785
:1045D0006CF94FF488719520FCF767F940F273117C
:1045E0000720FCF762F9322001F025FEB8E43448D8
:1045F000808841F2055188427ED100210720FCF7D6
:1046000054F9322001F017FE4FF48E711220FCF79E
:104610004CF90121A420FCF748F90F210820FCF7F0
:1046200044F908210A20FCF740F908210D20FCF785
:104630003CF940F207713020FCF737F907213120AF
:10464000FCF733F940F203613220FCF72EF94FF406
:10465000E0613320FCF729F940F202213420FCF715
:1046600024F902213520FCF720F941F60F7136209C
:10467000FCF71BF940F207713720FCF716F900210F
:104680003820FCF712F900213920FCF70EF940F22E
:1046900007713A20FCF709F900213B20FCF705F9E6
:1046A00007213C20FCF701F900213D20FCF7FDF833
:1046B000322001F0C0FD01210720FCF7F6F801E0EF
:1046C0008000002001211720FCF7EFF8322001F0D4
:1046D000B2FD4FF4BD511020FCF7E7F840F217216E
:1046E0001120FCF7E2F84FF48F711220FCF7DDF88F
:1046F0004FF47061132000E097E0FCF7D6F800213A
:104700002A20FCF7D2F80A212920FCF7CEF84FF432
:104710009F711220FCF7C9F800215020FCF7C5F862
:10472000EF215120FCF7C1F800215220FCF7BDF821
:1047300040F23F115320FCF7B8F84FF41C516020B1
:10474000FCF7B3F801216120FCF7AFF800216A20E3
:10475000FCF7ABF800218020FCF7A7F800218120AE
:10476000FCF7A3F800218220FCF79FF800218320AA
:10477000FCF79BF800218420FCF797F800218520A6
:10478000FCF793F813219020FCF78FF84FF4407159
:104790009220FCF78AF805219320FCF786F8002187
:1047A0009520FCF782F800219720FCF77EF8002185
:1047B0009820FCF77AF84FF480710120FCF775F827
:1047C0004FF4E0610220FCF770F841F23801032059
:1047D000FCF76BF800210420FCF767F800210C209F
:1047E000FCF763F800210F20FCF75FF80021202080
:1047F000FCF75BF800212120FCF757F82121072066
:10480000FCF753F8142001F016FD61210720FCF796
:104810004CF8142001F00FFD40F273110720FCF753
:1048200044F8142001F007FD95E4FE4880884BF21F
:10483000055188427ED100210846FCF736F8002158
:104840000846FCF732F800210846FCF72EF8002154
:104850000846FCF72AF80121A420FCF726F81420CA
:1048600001F0E9FC4FF41C516020FCF71EF840F207
:1048700002210820FCF719F84FF405713020FCF7ED
:1048800014F843F215713120FCF70FF840F204617F
:104890003220FCF70AF840F616613320FCF705F8E1
:1048A00042F211213420FCF700F84FF4A8513520D2
:1048B000FBF7FBFF48F207513620FBF7F6FF41F20A
:1048C00007413720FBF7F1FF41F203413820FBF7A6
:1048D000ECFF20213920FBF7E8FF1A219020FBF79D
:1048E000E4FF00211020FBF7E0FF07211120FBF778
:1048F000DCFF00211220FBF7D8FF00211320FBF77B
:10490000D4FF142001F097FC4FF4E6611020FBF770
:10491000CCFF40F237111120FBF7C7FF142001F044
:104920008AFC4FF4DC711220FBF7BFFF142001F06A
:1049300082FC00E083E04FF470611320FBF7B5FFC9
:1049400080212A20FBF7B1FF48212920FBF7ADFF8A
:10495000142001F070FC4FF480710120FBF7A5FFDB
:104960004FF4E0610220FBF7A0FF41F23801032081
:10497000FBF79BFF40F202210820FBF796FF002186
:104980000A20FBF792FF00210C20FBF78EFF00218D
:104990000D20FBF78AFF30210E20FBF786FF002158
:1049A0005020FBF782FFEF215120FBF77EFF002113
:1049B0005220FBF77AFF40F23F115320FBF775FFBF
:1049C0004FF41C516020FBF770FF01216120FBF7C1
:1049D0006CFF00216A20FBF768FF11219020FBF794
:1049E00064FF4FF4C0619220FBF75FFF40F2024189
:1049F0009320FBF75AFF02219420FBF756FF142067
:104A000001F019FC01210720FBF74FFF142001F0F2
:104A100012FC61210720FBF748FF40F273110720C9
:104A2000FBF743FF00212020FBF73FFF002121205F
:104A3000FBF73BFF22210020FBF737FF11E379480A
:104A400080884CF2055188427ED100210846FBF750
:104A50002CFF00210846FBF728FF142001F0EBFB98
:104A600000210846FBF721FF00210846FBF71DFF48
:104A700000210846FBF719FF00210846FBF715FF48
:104A80000121A420FBF711FF142001F0D4FB4FF407
:104A90001C516020FBF709FF40F606010820FBF7D8
:104AA00004FF40F203713020FBF7FFFE01213120AB
:104AB000FBF7FBFE04213220FBF7F7FE4FF4817178
:104AC0003320FBF7F2FE4FF440713420FBF7EDFE8C
:104AD00040F203113520FBF7E8FE1F213620FBF7DB
:104AE000E4FE40F203713720FBF7DFFE012138209E
:104AF000FBF7DBFE04213920FBF7D7FE15219020C0
:104B0000FBF7D3FE4FF482611020FBF7CEFE40F29C
:104B100047211120FBF7C9FE4FF4DE711220FBF78D
:104B2000C4FE4FF460611320FBF7BFFE782001F054
:104B300082FB4FF480710120FBF7B7FE4FF4007148
:104B40000220FBF7B2FE00E050E041F2300103200A
:104B5000FBF7ABFE08210A20FBF7A7FE00210C2083
:104B6000FBF7A3FE20210E20FBF79FFE00210F2064
:104B7000FBF79BFE00212020FBF797FE0021212060
:104B8000FBF793FE3D212A20FBF78FFE142001F056
:104B900052FB2D212920FBF788FE00215020FBF736
:104BA00084FE4DF2EF015120FBF77FFE00215220E1
:104BB000FBF77BFE40F23F115320FBF776FE00210E
:104BC0006120FBF772FE00216A20FBF76EFE4FF4B6
:104BD00040719220FBF769FE05219320FBF765FEEB
:104BE0004FF480710720FBF760FE3AE20D488088A1
:104BF00044F2315188427CD101210020FBF755FE5F
:104C00000A2001F018FB41F228611020FBF74DFE4D
:104C10000E211220FBF749FE40F639211320FBF745
:104C200044FE01E0800000200A2001F004FB402146
:104C30001120FBF73AFE50211520FBF736FE0A2023
:104C400001F0F9FA1E211220FBF72FFE0A2001F0D5
:104C5000F2FA4FF4B1511020FBF727FE42F639214A
:104C60001320FBF722FE0A2001F0E5FA4FF48071D1
:104C70000120FBF71AFE4FF440710220FBF715FEEE
:104C800041F238010320FBF710FE40F20221082018
:104C9000FBF70BFE08210A20FBF707FE002130205E
:104CA000FBF703FE40F202413120FBF7FEFD4FF41B
:104CB00083713220FBF7F9FD40F203513320FBF7FB
:104CC000F4FD4FF482713420FBF7EFFD40F2013127
:104CD0003520FBF7EAFD40F207713620FBF7E5FDD2
:104CE00040F205313720FBF7E0FD4FF40271382028
:104CF00000E040E0FBF7D9FD40F60B713920FBF7EF
:104D0000D4FD02214120FBF7D0FD4FF41C5160205F
:104D1000FBF7CBFD01216120FBF7C7FD4FF40471C8
:104D20009020FBF7C2FD4FF485719220FBF7BDFD8B
:104D300004219320FBF7B9FD4FF48071A020FBF70D
:104D4000B4FD01210720FBF7B0FD21210720FBF76F
:104D5000ACFD23210720FBF7A8FD33210720FBF73B
:104D6000A4FD40F233110720FBF79FFD0021A02096
:104D7000FBF79BFD75E1FA48808844F23551884283
:104D80007ED130211520FBF790FD10219A20FBF7F2
:104D90008CFD20211120FBF788FD43F228411020D3
:104DA000FBF783FD02211220FBF77FFD41F2380162
:104DB0001320FBF77AFD282001F03DFA1221084666
:104DC000FBF773FD282001F036FA43F22041102052
:104DD000FBF76BFD43F238011320FBF766FD46201D
:104DE00001F029FA00213020FBF75FFD40F202417B
:104DF0003120FBF75AFD40F207313220FBF755FD19
:104E00004FF441713320FBF750FD04213420FBF7B0
:104E10004CFD40F201413520FBF747FD40F20771A0
:104E20003620FBF742FD40F205313720FBF73DFD10
:104E30004FF4C2613820FBF738FD4FF4C2613920CE
:104E4000FBF733FD4FF480710120FBF72EFD4FF48B
:104E500040710220FBF729FD41F230010320FBF7EE
:104E600024FD40F608010820FBF71FFD08210A2059
:104E7000FBF71BFD4FF41C516020FBF716FD00E013
:104E800031E001216120FBF710FD4FF49F7190206C
:104E9000FBF70BFD4FF480719220FBF706FD4FF4FA
:104EA00080719320FBF701FD4FF44051A020FBF7E8
:104EB000FCFC1021A320FBF7F8FC01210720FBF7E5
:104EC000F4FC21210720FBF7F0FC23210720FBF74E
:104ED000ECFC33210720FBF7E8FC40F233110720FC
:104EE000FBF7E3FCBDE09E48808841F663118842F1
:104EF000F8D1E220FBF7CAFC1D20FBF7CAFC022018
:104F0000FBF7C7FC0420FBF7C4FC642001F06FF939
:104F1000E020FBF7BBFC0120FBF7BBFC0A2001F003
:104F20008AF9E020FBF7B2FC0320FBF7B2FC0C206F
:104F300001F081F90120FBF7A9FC0A2001F07BF9BF
:104F4000E620FBF7A3FC2F20FBF7A3FCFF20FBF7D9
:104F5000A0FCFF20FBF79DFCB020FBF797FC202076
:104F6000FBF797FC0020FBF794FC0320FBF791FC78
:104F700040F21F30FBF78DFC0120FBF78AFC40F26A
:104F8000DF10FBF786FC0020FBF783FCB420FBF767
:104F90007DFC0420FBF77DFC40F21F40FBF779FC11
:104FA0000020FBF776FC2E20FBF773FC0020FBF7BC
:104FB00070FC0020FBF76DFC0020FBF76AFC002072
:104FC000FBF767FCB620FBF761FC0220FBF761FCF6
:104FD0004FF40370FBF75DFC0020FBF75AFC172031
:104FE000FBF757FC1520FBF754FC0020FBF751FCA6
:104FF0000020FBF74EFCF020FBF748FC0320FBF7FA
:1050000048FC2920FBF742FCD020FBF73FFC0020A6
:10501000FBF73FFCBE20FBF739FC0520FBF739FC12
:10502000FE20FBF736FC0120FBF733FC0020FBF7EA
:1050300030FC0020FBF72DFC0020FBF72AFCB820F9
:10504000FBF724FC0320FBF724FC0120FBF721FCE9
:10505000BA20FBF71BFC0120FBF71BFC6420FCF7CC
:10506000F7F80020FCF71CF94FF6FF70FCF72AFB5D
:105070001FB000BD2DE9FC4F05460E461746984669
:10508000DDF82C90002001903548808846F6040118
:10509000884229D132488079012825D1AB4635464E
:1050A0002F480088C01B401E86B247462C48008807
:1050B000A0EB0B00401E1FFA80F8002028498871E1
:1050C0002A2048812B20888143463A46314628468B
:1050D000CDF80090FFF7CEFF0120214988712B20E9
:1050E00048812A2088811CE0781B401C80B20190F6
:1050F000344614E021462846FBF704FCFBF7E5FBA9
:105100004FF0000A06E01748A0F800900AF10100ED
:105110001FFA80FA01988245F5DB601C84B2444591
:10512000E8DDBDE8FC8F2DE9F84F07460D469046B7
:105130009946DDF828B0A8EB0700401C1FFA80FA5A
:10514000A9EB0500401C80B20090002418E028194B
:1051500081B23846FBF7D6FBFBF7B7FB00260BE026
:10516000800000200008006C04FB0A603BF810007F
:10517000F7490880701C86B25645F5DB601C84B286
:1051800000988442E3DBBDE8F88F2DE9FF4F84B03F
:1051900081468A460020039002900698A0EB0905FC
:1051A0000798A0EB0A06CDF80490CDF800A0002DDA
:1051B00001DD012705E00DB9002702E04FF0FF37C0
:1051C0006D42002E02DD4FF0010806E016B94FF0E7
:1051D000000802E04FF0FF387642B54201DD2C4670
:1051E00000E034464FF0000B21E0009A91B2019AA2
:1051F00090B2FBF739FF039828440390029830449B
:1052000002900398A04205DD0398001B03900198CB
:10521000384401900298A04205DD0298001B0290DC
:105220000098404400900BF101001FFA80FB601CC5
:105230008345DADD08B0BDE8F08FF0B504460D46D1
:1052400016461F462B46324629462046FFF79DFF4D
:105250003B46224629462046FFF797FF3B4632460B
:1052600039462046FFF791FF3B46324629463046F5
:10527000FFF78BFFF0BD2DE9F04306460F46904641
:10528000002445460320A0EB48093CE07A1B91B27C
:10529000321990B2FBF7E8FE3A1B91B2721990B244
:1052A000FBF7E2FE3A1991B2721990B2FBF7DCFEFD
:1052B0007A1991B2321990B2FBF7D6FE7A1991B2EF
:1052C000321B90B2FBF7D0FE3A1991B2721B90B22A
:1052D000FBF7CAFE7A1B91B2321B90B2FBF7C4FEF9
:1052E0003A1B91B2721B90B2FBF7BEFE641CB9F17F
:1052F000000F03DAA000801D814404E0601B8000E1
:105300000A3081446D1EAC42C0DDBDE8F0832DE95A
:10531000F84F80460E4617461C46B3462046E31714
:1053200004EB5373DB1021464FEAE47C04EB5C7C16
:105330004FEAEC0CA4EBCC0CBCF1000F02D04FF008
:10534000010C01E04FF0000C6344224604EBD27CD8
:105350004FEA6C0C03FB0CF3DBB20093A7F12000C7
:10536000C7B2002556E00C2C07D107EB470079495E
:1053700001EB800010F8059013E0102C05D1764861
:1053800000EB071010F805900BE0182C07D107EB85
:10539000C700724901EB800010F8059001E0BDE8FC
:1053A000F88F4FF0000A2FE009F0800030B16C4810
:1053B000028831464046FBF76BFE07E00A9828B9A1
:1053C0006848028831464046FBF762FE4FEA496072
:1053D0004FEA1069701C86B263484088B04200DC16
:1053E000DDE7A6EB0B00A0420AD15E4608F1010002
:1053F0001FFA80F85C480088404500DCCFE706E0F3
:105400000AF1010000F0FF0ABAF1080FCCDB00BF7F
:10541000681CC5B200988542A5DB00BFBFE710B588
:105420000246012000E050430B1EA1F10104E1B24D
:10543000F9D110BD2DE9FF4F81B0074691461E46B8
:105440000E9D4FF0000A002439E0301B401EC1B20F
:105450000A20FFF7E4FFB9FBF0F00A21B0FBF1F2FC
:1054600001FB1208BAF1000F16D1701EA04213DD25
:10547000B8F1000F0ED10020AB4605EBDB714910EF
:1054800001FB0471009088B22B4620220299FFF79D
:105490003EFF12E04FF0010A0020AB4605EBDB7146
:1054A000491001FB0471009088B208F13001CAB2C2
:1054B0002B460299FFF72BFF00BF601CC4B2B44219
:1054C000C3DB05B0BDE8F08F2DE9FF4F82B0064683
:1054D00092461F46DDE90F480020019000255CE060
:1054E000781B401EC1B20A20FFF799FFBAFBF0F00B
:1054F0000A21B0FBF1F201FB12090198B0BB781E42
:10550000A84236DDB9F1000F31D108F0800078B142
:1055100008F00100A34604EBDB71491001FB0561B3
:10552000009088B2234630220399FFF7F0FE0EE088
:1055300008F00100A34604EBDB71491001FB056193
:10554000009088B2234620220399FFF7E0FE22E074
:105550000008006CAAAB00081EB000080EB60008D8
:1055600054000020560000208000002001E00120AF
:10557000019008F00100A34604EBDB71491001FB28
:105580000561009088B209F13001CAB2234603993F
:10559000FFF7BDFE00BF681CC5B2BD42A0DB06B070
:1055A000BDE8F08F2DE9F84704460D469046994630
:1055B000DDE9096704F0FF0A08EB04001FFA80F830
:1055C00009EB05001FFA80F916E0444502DB54465A
:1055D000A81985B24D4500DB14E0002000903A7810
:1055E000334629462046FFF792FE304606EBD0713F
:1055F00004EB61018CB27F1C38787E2802DC38789D
:105600002028E2DA00BFBDE8F887000008B50121D4
:10561000802001F08DFD10208DF803001E20ADF8D4
:10562000000003208DF802006946A54801F0C4FA85
:1056300048208DF803004FF4F070ADF80000694683
:105640009F4801F0B9FA08BD10B502219C4801F04D
:1056500062FB1C219A4801F05CFB2021984801F074
:105660003EFB58B9052000F0E6FD2021944801F0EA
:1056700036FB08B9042010BD0020FCE7402190480B
:1056800001F02DFB58B9052000F0D5FD40218C48D4
:1056900001F025FB08B90320EDE70020EBE78021AE
:1056A000874801F01CFB58B9052000F0C4FD80219B
:1056B000834801F014FB08B90220DCE70020DAE798
:1056C0004FF480717E4801F00AFB60B9052000F0BC
:1056D000B2FD4FF480717A4801F001FB08B9012056
:1056E000C9E70020C7E70421754801F014FB1A211F
:1056F000734801F00EFB2021714801F0F0FA58B90F
:10570000052000F098FD20216D4801F0E8FA08B965
:105710000820B0E70020AEE74021694801F0DFFA39
:1057200058B9052000F087FD4021654801F0D7FAFF
:1057300008B907209FE700209DE78021604801F01D
:10574000CEFA58B9052000F076FD80215C4801F0C2
:10575000C6FA08B906208EE700208CE74FF4807166
:10576000574801F0BCFA60B9052000F064FD4FF421
:105770008071534801F0B3FA08B905207BE7002097
:1057800079E708214E4801F0C6FA16214C4801F08D
:10579000C0FA20214A4801F0A2FA58B9052000F0C9
:1057A0004AFD2021464801F09AFA08B90C2062E728
:1057B000002060E74021424801F091FA58B90520E5
:1057C00000F039FD40213E4801F089FA08B90B206C
:1057D00051E700204FE78021394801F080FA58B99D
:1057E000052000F028FD8021354801F078FA08B93D
:1057F0000A2040E700203EE74FF48071304801F076
:105800006EFA60B9052000F016FD4FF480712C4847
:1058100001F065FA08B909202DE700202BE71021D7
:10582000274801F078FA0E21254801F072FA20216C
:10583000234801F054FA58B9052000F0FCFC20215F
:105840001F4801F04CFA08B9102014E7002012E7B5
:1058500040211B4801F043FA58B9052000F0EBFC49
:105860004021174801F03BFA08B90F2003E7002058
:1058700001E78021124801F032FA58B9052000F002
:10588000DAFC80210E4801F02AFA08B90E20F2E66F
:105890000020F0E64FF48071094801F020FA60B969
:1058A000052000F0C8FC4FF48071054801F017FA9C
:1058B00008B90D20DFE60020DDE60020DBE6000071
:1058C000001C014000B587B00121880201F030FCC6
:1058D0000121042001F02CFC4FF4004001F08CFB6E
:1058E00000208DF81B000220ADF8180003208DF871
:1058F0001A0006A9214801F05FF90523012211468B
:105900001F4801F03CFF0020019004904FF46020FC
:10591000039000208DF809008DF8080001208DF813
:10592000140001A9164801F092FE0121144801F06B
:10593000BAFE134801F0D9FE00BF114801F0DAFEAB
:105940000128FAD00E4801F0DFFE00BF0C4801F03C
:10595000E0FE0128FAD007B000BD10B501210848CB
:1059600001F0E1FE00BF0221054802F04DF80028D9
:10597000F9D0034801F06AFF10BD000000080140A3
:10598000002801401FB50121102001F0D1FB0121A9
:10599000084601F0CDFB48208DF80F002020ADF81F
:1059A0000C0003208DF80E0003A9204801F004F933
:1059B0000521022001F016FA2020019001208DF827
:1059C0000A0000208DF808000C208DF8090001A8BD
:1059D00002F04CF84FF4A06000F01AFD17208DF88B
:1059E000000001208DF803008DF801008DF8020001
:1059F000684600F012FD1FBD10B50D48006804F0A8
:105A00005BFF80B210BD10B5202002F095F8012890
:105A10000AD14FF07E510648006804F029FE04497F
:105A20000860202002F099F810BD0000001001402D
:105A3000100000201FB50121022001F086FB27483D
:105A400002F0F8FC0020ADF80A00ADF8060042F2C2
:105A50000F70ADF8080041F61F40ADF804000020BB
:105A60008DF80C0001A91D4802F054F901211B48D2
:105A700002F072FF01221146184802F0C2FC4FF4F6
:105A8000A06000F0C5FC1D208DF8000001208DF8FD
:105A9000030002208DF801008DF80200684600F036
:105AA000BCFC01210D4802F091FC1FBD10B5012185
:105AB0000A4802F054FF01280FD109480068401C31
:105AC0000749086008460068B0F5FA6F01D1002068
:105AD00008600121014802F053FF10BD000400409E
